:020000040800F2
:10000000209F00209D010008BD9E0008A5910008CA
:10001000B99E0008CD2400081FD000080000000091
:1000200000000000000000000000000091A1000896
:10003000B3250008000000009D9F000895A100085E
:10004000B7010008B7010008B7010008B7010008B0
:10005000B7010008B7010008B5250008BF25000852
:10006000B7010008B7010008B7010008B701000890
:10007000B7010008B701000821250008B7010008F2
:10008000B7010008B7010008B7010008B701000870
:10009000B7010008B7010008B7010008B701000860
:1000A000B7010008B7010008B7010008B701000850
:1000B000B7010008B701000899A20008B7010008BD
:1000C000B7010008B7010008B7010008B701000830
:1000D000B7010008B7010008B7010008B701000820
:1000E000B7010008B7010008B7010008B701000810
:1000F000B7010008B7010008B70100083125000862
:10010000B7010008B7010008B7010008B7010008EF
:10011000B7010008B7010008B7010008B7010008DF
:10012000B7010008B7010008B7010008B7010008CF
:10013000B7010008B7010008B7010008B7010008BF
:10014000B7010008B7010008B7010008F99E0008D0
:10015000B7010008B7010008B7010008B70100089F
:10016000B7010008B7010008B7010008B70100088F
:10017000B7010008B7010008B7010008000000003F
:10018000B7010008B7010008DFF80CD001F05AFDF4
:10019000004800474DF50008209F00200648804792
:1001A00006480047FEE7FEE7FEE7FEE7FEE7FEE75C
:1001B000FEE7FEE7FEE7FEE735A20008890100083A
:1001C0002DE9F05FFE490546FE480A680026824296
:1001D00006D0FE4AFC4B13601268824232D108609E
:1001E000EE61AE616E612E61AE626E622E62686813
:1001F000DFF8DCA3DFF8DCB305F11004814610F072
:10020000FF4F21D0288801F055FC52465B4601F093
:10021000E2FB80460F46484601F072FC42463B46F0
:1002200001F0C0FA074688460821484601F0AEFAB8
:1002300001F066FC3A46434601F0CDFB01F047FC75
:10024000A08302E00E60FEE7A683A868814610F056
:10025000FF4F1FD0B5F80080404601F02BFC074649
:100260000E46484601F04CFC52465B4601F041FB0D
:100270003A46334601F096FA07460E464FEA082002
:1002800001F018FC3A46334601F0A5FB01F01FFCD3
:10029000E08300E0E68328884FF47A71B0FBF1F048
:1002A0002084BDE8F09F2DE9FF4FC549C54A97B0AE
:1002B0000968914200D0FEE71A99103100260A69B8
:1002C00007924A6905928A690492D1E901420D6850
:1002D00009921A9AD1F80CE08B8B92890693CB8BFA
:1002E0000E931DE10778BC4B13F807C0A444A3F597
:1002F0008074CDF844C014F807C005EB4C09A3F591
:10030000007515F807A0875C13F8078008EB090C47
:10031000CDF82CC010F812C014F8078015F807901B
:1003200013F80C700AEB480807EB080B14F80C8064
:1003300015F80C70039702EB4207139710F807C0EB
:1003400009EB4809039F13F80C8008EB090A14F81D
:100350000C8007EB480915F80C70039710F822C0C1
:1003600013F80C8008EB0907129714F80C80039F10
:1003700007EB480915F80C70039702EB820710F899
:1003800007C0039F13F80C80C14414F80C8007EBDE
:100390004807029715F80C700397139F10F817C0C1
:1003A000029F13F80C804744149714F80C80039FA5
:1003B00007EB480715F80C80C2EBC20C10F80CC014
:1003C00013F80C301F44139714F80C3015F80C5028
:1003D000DDF82CC008EB4304CCEBCC03DDF844C0C3
:1003E00003EB4303CCEBCC0703EB870CCBEB0B17F6
:1003F000BC440AEB8A070CEB470C129F07EB47083B
:100400000CEB480C09EB4907BC44149FBC440CEBB3
:100410000E07DDF844C001970CEBCC07BF0007EBDB
:100420004303CBEBCB0C0CEB0B1703EB47030AEBB3
:100430004A0703EB0713C9EBC90C03EB08130CEBDA
:10044000091703EB470C149FC7EBC703139F03EB7C
:1004500043030CEB430C07EBC7070CEB870C099F1E
:100460000CEB070EDDF82CC00BEB4B07BC440AEB82
:100470004A074FEA4708129F07EB870708EB470731
:10048000BC44C9EB091767443B44139FC7EBC7073C
:1004900003EB87030993019F0E9BA7F500378BB1F0
:1004A000079B03EB070C059B0597ACEB0303DDF8FB
:1004B00038C003FB0CF34FEAE37C03EB1C631B1215
:1004C00007931F46069B7BB1DDF810C0C3F5807310
:1004D00003FB0CF3DDF818C00CFB0733DF1703EB4D
:1004E00017631B121F460493199B5F43002F01DD06
:1004F000083700E0083FFB1707EB1373374F1B115A
:10050000BB4202DB7F42BB4200DD3B461A9FDDF867
:1005100060C000EBC200FF897743761C2CF81730CF
:100520000B8CB3423FF7DEAEC1E900540998C1E934
:10053000020E07980861059848610498886198B28E
:100540001BB0BDE8F08F2DE9FF4F1D491D4A98B043
:100550000968914200D0FEE71B99103100250A6915
:1005600002924A6906928A690592D1E9006296462A
:100570008A680892CA6807921B9A94898A8B0992A2
:10058000CA8B159259E10778134A12F807C00CEB91
:100590000E031693A2F5807313F807C006EB4C0800
:1005A000A2F5007610F804C016F8079012F80C7047
:1005B00047440A9713F80C8009EB480810E0000044
:1005C00058010020CDB5E8B5C2A507F400300240BF
:1005D0001F85EB51B81E19405C0300204480FFFFCB
:1005E00010F8147016F80C9012F807C0C444CDF837
:1005F0002CC013F8078009EB480816F8079004EBA5
:100600004407129710F807C012F80C7047440F9770
:1006100013F80C8016F80CA010F824C009EB480958
:1006200004EB840712F80C8016F80CE0C14413F8B0
:100630000C800E9710F807C00AEB480A129F12F8B8
:100640000C8008EB0A0B13F80C800EEB480A16F826
:100650000CE010F817C012F80C8016F80C70C244A9
:1006600013F80C800497C4EBC4070EEB480E10F887
:1006700007C012F80C8008EB0E07139713F80C80D4
:10068000049F07EB480E16F80C70049710F834C05E
:1006900012F80C8008EB0E07149713F80C80049FD7
:1006A00016F80CC007EB480804EBC407C75DD25D21
:1006B000F65D9044DA5D169B0CEB420EC3EB031221
:1006C0000A9F02EB420207EBC703DDF82CC002EBE6
:1006D0008302CCEBCC030F9F02EB8302C7EBC70373
:1006E00003EB43031A44C9EB09131A440BEB8B03C6
:1006F00002EB43020AEB4A03139F02EB430207EBB0
:100700004703149F1A44D319079A0A9F1A44169B49
:10071000019203EBC302C2EB8312C7EB87131A44A7
:100720000CEB8C0303EB8C130F9F1A4407EBC703EE
:1007300003EB87131A44C9EB091303EB83031A4431
:10074000CBEB0B1303EB83031A440AEBCA0303EB53
:100750008A13139F1A4407EB870303EB8713149F35
:100760001A44C7EB87131A4408EBC803C3EB88137A
:100770001344089A0A9F1A4407920CEB4C023A441D
:100780000F9F07EB47035B0009EB890703EB470368
:100790001A44CBEB0B131344CAEBCA0202EB42021E
:1007A000139F1A44C7EBC703149F02EB830207EBA6
:1007B000C70302EB8302C8EB081303EB43031A449D
:1007C0000892019A159BA2F57A3263B1029B9F1899
:1007D000069BFB1A159F06927B43DF1703EB1763FB
:1007E0001B1202931A46099B5BB1C3F58077059BE8
:1007F0005F43099B03FB0272D31702EB13621212D1
:1008000005921A9B5A43002A01DD103200E0103A8B
:10081000D31702EBD362FF4B52119A4202DB5B42C9
:100820009A4200DD1A461B9B199FDB896B436D1CA6
:1008300027F813200E9A00EB42000A8CAA423FF7D9
:10084000A2AEC1E9006E089888600798C860029857
:100850000861069848610598886190B21CB070E6FE
:100860002DE9FF4FEC49ED4A97B00968914200D05D
:10087000FEE710330027D3E904610891D3E9014270
:10088000D3F8009099690692DA6809929A8B0592DA
:10089000DA8B1192059AC2F580720C92DE4A90F8BA
:1008A00000C0121D12F80C50254402F580741095FA
:1008B00014F80C8002F5007509EB480890F80890D0
:1008C00015F80CA012F809C0E044CDF82C8014F8FB
:1008D000098015F809B090F810900AEB480A12F850
:1008E000098015F809C008EB0A0E14F80980CDF844
:1008F00010C090F818900BEB480A12F8098008EB2A
:100900000A0B14F809800CEB480A15F809C0CDF859
:1009100010C090F8209012F8098008EB0A0CCDF86E
:1009200048C014F80980DDF810C00CEB480A15F82F
:1009300009C0CDF810C090F8289012F80980C24480
:1009400014F809800CEB480CCDF80CC015F809C060
:10095000CDF810C090F83090DDF80CC012F8098086
:10096000C444CDF850C014F80980DDF810C015F863
:1009700009900CEB480890F838C012F80C2042445B
:10098000139214F80C20DDF82C8009EB420415F8C2
:100990000C90109DC8EBC80202EB4202C5EBC505E6
:1009A00002EB8505CEEB0E1C65440BEB8B0C05EBC7
:1009B0004C05DDF848C00CEB4C0805EB48050AEB8C
:1009C0004A0C6544DDF850C0AC44099D654401956E
:1009D000109DDDF850C005EBC505AD0005EB4202EA
:1009E000CEEBCE0505EB0E1502EB45020BEB4B05EE
:1009F00002EB0512CAEBCA0502EB081205EB0A1559
:100A000002EB4502CCEBCC0505EB450502EB450CB2
:100A1000139ADDF82C8002EBC2020CEB820C069AD2
:100A2000624409920EEB4E0242440BEB4B0C4FEA30
:100A30004C08DDF848C00CEB8C0C08EB4C0C624405
:100A4000CAEB0A1C62441544139AC2EBC20205EBBE
:100A500082020692019D089AA5F500352E44B21A2D
:100A6000119E08957243D61702EB166216120C9A65
:100A70004A43059901FB0621CA1701EB1261199A35
:100A800009124A43002A01DD083200E0083AD5176E
:100A900002EB15725F4D1211AA4202DB6D42AA42AF
:100AA00000DD2A4607EB470C189D40307F1C25F8D7
:100AB0002C20102FFFF6F2AEC3E900940698986040
:100AC0000998C3E903060898C3E90501102037E532
:100AD0002DE9FF4F5049514A98B00968914200D022
:100AE000FEE71B99103100250A6902924A690692B5
:100AF0008A690592D1E9006296468A680892CA68B6
:100B000007921B9A94898A8B0992CA8B159250E19D
:100B1000414A0778121D12F807C00CEB0E0316931A
:100B200002F5807313F807C006EB4C0802F5007657
:100B300010F804C016F8079012F80C7047440A9792
:100B400013F80C8010F8147009EB480816F80C9094
:100B500012F807C0C444CDF82CC013F8078009EB85
:100B6000480816F8079004EB4407129710F807C0DE
:100B700012F80C7047440F9713F80C8016F80CA06D
:100B800010F824C009EB480904EB840712F80C8024
:100B900016F80CE0C14413F80C800E9710F807C04B
:100BA0000AEB480A129F12F80C8008EB0A0B13F8A4
:100BB0000C800EEB480A16F80CE010F817C012F87B
:100BC0000C8016F80C70C24413F80C800497C4EB28
:100BD000C4070EEB480E10F807C012F80C8008EBA3
:100BE0000E07139713F80C80049F07EB480E16F8B6
:100BF0000C70049710F834C012F80C8008EB0E0744
:100C0000149713F80C80049F16F80CC007EB4808E3
:100C100006E000004480FFFF58010020CDB5E8B594
:100C200004EBC407C75DD25DF65D9044DA5D169BA8
:100C30000CEB420EC3EB03120A9F02EB420207EBDE
:100C4000C703DDF82CC002EB8302CCEBCC030F9F73
:100C500002EB8302C7EBC70303EB43031A44C9EB60
:100C600009131A440BEB8B0302EB43020AEB4A0312
:100C7000139F02EB430207EB4703149F1A44D31957
:100C8000079A0A9F1A44169B019203EBC302C2EB18
:100C90008312C7EB87131A440CEB8C0303EB8C1302
:100CA0000F9F1A4407EBC70303EB87131A44C9EBE2
:100CB000091303EB83031A44CBEB0B1303EB8303FE
:100CC0001A440AEBCA0303EB8A13139F1A4407EB77
:100CD000870303EB8713149F1A44C7EB87131A4447
:100CE00008EBC803C3EB88131344089A0A9F1A44FD
:100CF00007920CEB4C023A440F9F07EB47035B0053
:100D000009EB890703EB47031A44CBEB0B1313449E
:100D1000CAEBCA0202EB4202139F1A44C7EBC70395
:100D2000149F02EB830207EBC70302EB8302C8EBBD
:100D3000081303EB43031A440892019A159BA2F58A
:100D40007A3263B1029B9F18069BFB1A159F06928D
:100D50007B43DF1703EB17631B1202931A46099BB1
:100D60005BB1C3F58077059B5F43099B03FB027270
:100D7000D31702EB1362121205921A9B5A43002AF0
:100D800001DD103200E0103AD31702EBD362FF4BC3
:100D900052119A4202DB5B429A4200DD1A461B9BCB
:100DA000199FDB896B436D1C27F813200E9A00EB0B
:100DB00042000A8CAA423FF7ABAEC1E9006E089828
:100DC00088600798C860029808610698486105988D
:100DD000886190B242E52DE9FF4FED49ED4A9DB0A3
:100DE0000968914200D0FEE72099103100260A6977
:100DF00007924A6905928A690492D1E901320C6826
:100E00000892CA680692209A95898A8B0992CA8BA1
:100E1000199226E2DE4A0778121D05EB850E12F8BC
:100E200007C09C4402F58073CDF868C013F807C072
:100E300010F8058004EB4C0C02F5007414F80790D0
:100E400012F8087067440A9710F8157013F808C074
:100E500014F808A012F8078009EB4C0908EB090CFC
:100E6000CDF82CC005EB450913F8078010F809C030
:100E70000AEB480814F807A012F80C7047440E97C4
:100E800013F80C800AEB480714F80CA010F825C0E2
:100E900012F80C8047440F9713F80C7014F80CB03C
:100EA00010F80EC00AEB470A12F80C8008EB0A078C
:100EB000109713F80C800BEB480A14F80CB010F8DC
:100EC00019C012F80C8008EB0A07119713F80C8070
:100ED0000BEB480A14F80CB0C5EBC50CCDF86CC090
:100EE00010F80CC012F80C8008EB0A07129713F8E0
:100EF0000C8014F80CA010F835C00BEB480712F862
:100F00000C804744139713F80C700AEB470714F84A
:100F10000CA005EBC50C10F80CC012F80C8047446F
:100F2000149713F80C7014F80CB010F81EC00AEBEC
:100F3000470A12F80C8008EB0A07159713F80C8083
:100F400005EB45070BEB480A07EBC50714F80CB097
:100F500010F807C012F80C80C24413F80C800BEB99
:100F6000480714F80CB010F829C012F80C8014F8D7
:100F70000C9008EB070E13F80C7005EB850C0CEBCE
:100F8000C50C0BEB470710F80CC012F80C8008EBEF
:100F9000070B13F80C7014F80C80DDF86CC0CDF85A
:100FA0000C8009EB470710F81CC012F80C8008EB06
:100FB000070913F80C70DDF80C8014F80CC008EB6E
:100FC0004708C5EB0517C75DD25DE45D9044DA5D67
:100FD0000A9F0CEB4203C7EB0712DDF868C0C2EBB7
:100FE000C202CCEB0C1702EBC702DDF82CC05B276A
:100FF0001CFB07F73A440E9FC7EBC70C0CEB4717D7
:1010000002EB47020F9F07EB471702EB4702109FC7
:1010100007EBC70CCCEB87173A44119FC7EB0717B8
:1010200007EB47073A44129F07EBC70702EB87021B
:10103000139FC7EBC70702EB8702149FC7EBC707D5
:1010400007EB47073A44159FC7EB07173A440AEBEB
:101050008A0702EB47020EEB4E0702EB47020BEB4F
:101060004B073A4402EB0907069A3A440192DDF82D
:1010700068C00A9F0CEB0C12C7EB0717D20007EBF6
:101080008707DDF82CC002EB47020CEB0C1707EBCF
:101090008C1702EB47020E9F4FF02B0C17FB0CF73F
:1010A00002EB87020F9FC7EB071707EB470702EB1F
:1010B0008702109FC7EB471707EB470702EB470272
:1010C000119FC7EB471C0CEB871702EB4702129FDF
:1010D00007EB470702EB8712139F07EB470702EB6B
:1010E0008712149FC7EB471C0CEB871702EB4702D4
:1010F000159F4FF02B0CC7EB471707EB470702EB89
:101100004702CAEB0A1707EB470702EB87021EFBF1
:101110000CF702EB87020BEB0B1C0CEB8B1702EBB3
:101120004702C9EB091707EB870702EB470708EBF4
:10113000081207EBC207089A3A440692DDE90A7CD6
:101140000CEB4C0207EB020C0E9F07EB47020F9FC4
:10115000520007EB870702EB4702109F9444C7EB4E
:101160000712119F6244C7EBC70707EB47073A44D2
:10117000129FC7EBC70702EB8702139F07EBC70756
:1011800002EB8702149FC7EB071705E04480FFFFBF
:1011900058010020CDB5E8B507EB47073A44159F45
:1011A00007EBC70CCCEB87173A440AEB4A1702EB64
:1011B000470CCEEBCE0202EB4E120CEB420C5B2244
:1011C0001BFB02F2C9EB09176244C7EBC7071744C0
:1011D000C8EB081207EBC2020892019A199FA2F508
:1011E00080128FB1079F07EB020C059FACEB07073E
:1011F000DDF864C0059207FB0CF74FEAE77C07EBCC
:101200001C673F1207973A46099F77B1DDF810C077
:10121000C7F5807707FB0CF7DDF824C00CFB0272E2
:10122000D71702EB1762121204921F9F7A43002A0B
:1012300001DD803200E0803AD71702EB1762FF4FE2
:101240001212BA4202DB7F42BA4200DD3A46209FC8
:10125000DDF878C000EB0510FF897743761C2CF889
:1012600017200A8CB2423FF7D5ADC1E90043089878
:1012700088600698C86007980861059848610498D6
:10128000886190B221B0BDE8F08F2DE9FF4FEC49A5
:10129000EC4A9DB00968914200D0FEE720991031D8
:1012A00000260A6907924A6905928A690492D1E97F
:1012B00001320C680892CA680692209A95898A8B36
:1012C0000992CA8B199228E20778DF4A05EB850E4E
:1012D00012F807C09C44A2F58073CDF868C013F8DB
:1012E00007C010F8058004EB4C0CA2F5007414F84C
:1012F000079012F8087067440A9710F8157013F8F1
:1013000008C014F808A012F8078009EB4C0908EB94
:10131000090CCDF82CC005EB450913F8078010F82F
:1013200009C00AEB480814F807A012F80C704744EB
:101330000E9713F80C800AEB480714F80CA010F86D
:1013400025C012F80C8047440F9713F80C7014F85E
:101350000CB010F80EC00AEB470A12F80C8008EB2C
:101360000A07109713F80C800BEB480A14F80CB01E
:1013700010F819C012F80C8008EB0A07119713F83F
:101380000C800BEB480A14F80CB0C5EBC50CCDF87B
:101390006CC010F80CC012F80C8008EB0A0712970A
:1013A00013F80C8014F80CA010F835C00BEB4807AC
:1013B00012F80C804744139713F80C700AEB470798
:1013C00014F80CA005EBC50C10F80CC012F80C803A
:1013D0004744149713F80C7014F80CB010F81EC0A2
:1013E0000AEB470A12F80C8008EB0A07159713F866
:1013F0000C8005EB45070BEB480A07EBC50714F813
:101400000CB010F807C012F80C80C24413F80C801E
:101410000BEB480714F80CB010F829C012F80C8038
:1014200014F80C9008EB070E13F80C7005EB850C04
:101430000CEBC50C0BEB470710F80CC012F80C8036
:1014400008EB070B13F80C7014F80C80DDF86CC077
:10145000CDF80C8009EB470710F81CC012F80C807F
:1014600008EB070913F80C70DDF80C8014F80CC0B9
:1014700008EB4708C5EB0517C75DD25DE45D9044F6
:10148000DA5D0A9F0CEB4203C7EB0712DDF868C078
:10149000C2EBC202CCEB0C1702EBC702DDF82CC08A
:1014A0005B271CFB07F73A440E9FC7EBC70C0CEBFE
:1014B000471702EB47020F9F07EB471702EB470264
:1014C000109F07EBC70CCCEB87173A44119FC7EB73
:1014D000071707EB47073A44129F07EBC70702EBD2
:1014E0008702139FC7EBC70702EB8702149FC7EB66
:1014F000C70707EB47073A44159FC7EB07173A445E
:101500000AEB8A0702EB47020EEB4E0702EB47029B
:101510000BEB4B073A4402EB0907069A3A44019257
:10152000DDF868C00A9F0CEB0C12C7EB0717D2005E
:1015300007EB8707DDF82CC002EB47020CEB0C171A
:1015400007EB8C1702EB47020E9F4FF02B0C17FB9B
:101550000CF702EB87020F9FC7EB071707EB470754
:1015600002EB8702109FC7EB471707EB470702EB19
:101570004702119FC7EB471C0CEB871702EB470292
:10158000129F07EB470702EB8712139F07EB4707F2
:1015900002EB8712149FC7EB471C0CEB871702EB7B
:1015A0004702159F4FF02B0CC7EB471707EB470778
:1015B00002EB4702CAEB0A1707EB470702EB870269
:1015C0001EFB0CF702EB87020BEB0B1C0CEB8B17D3
:1015D00002EB4702C9EB091707EB870702EB470746
:1015E00008EB081207EBC207089A3A440692DDE9B5
:1015F0000A7C0CEB4C0207EB020C0E9F07EB470238
:101600000F9F520007EB870702EB4702109F94449D
:10161000C7EB0712119F6244C7EBC70707EB4707E9
:101620003A44129FC7EBC70702EB8702139F07EBF1
:10163000C70702EB8702149F08E000004480FFFF09
:1016400058010020CDB5E8B55C030020C7EB0717B3
:1016500007EB47073A44159F07EBC70CCCEB8717FE
:101660003A440AEB4A1702EB470CCEEBCE0202EBF0
:101670004E120CEB420C5B221BFB02F2C9EB09176A
:101680006244C7EBC7071744C8EB081207EBC20256
:101690000892019A199FA2F580128FB1079F07EB5C
:1016A000020C059FACEB0707DDF864C0059207FB51
:1016B0000CF74FEAE77C07EB1C673F1207973A46A7
:1016C000099F77B1DDF810C0C7F5807707FB0CF7ED
:1016D000DDF824C00CFB0272D71702EB176212125E
:1016E00004921F9F7A43002A01DD803200E0803A95
:1016F000D71702EB1762124F1212BA4202DB7F4277
:10170000BA4200DD3A46209FDDF878C000EB0510B4
:10171000FF897743761C2CF817200A8CB2423FF7DA
:10172000D3ADC1E90043089888600698C86007985F
:101730000861059848610498886190B2A2E50000AC
:101740004480FFFF40EA01039B0703D009E008C97A
:10175000121F08C0042AFAD203E011F8013B00F876
:10176000013B521EF9D27047D2B201E000F8012BC2
:10177000491EFBD270470022F6E710B513460A4611
:1017800004461946FFF7F0FF204610BD420005D081
:10179000C0F3C7525242914201DC0020704700EB77
:1017A000C15070472DE9FE4F804681EA0300C00F0B
:1017B0000C46009021F0004123F00045B8EB0200F8
:1017C000A94105D24046214690461C460B4602469A
:1017D00023F00040104347D0270DC7F30A00C3F39E
:1017E0000A510290401A019040286BDAC3F31300AB
:1017F00040F4801B0098924620B10023D2EB030AEC
:1018000063EB0B0B01985946C0F14002504600F0C3
:101810008AF906460D4650465946019A00F0A2F94B
:1018200010EB08006141002487EA115284EAE77353
:101830001A4340D0009A62B3019A012A4FEA075234
:1018400015DC001B61EB02014FF0004202EA075277
:10185000CDE90042001C41F5801132462B4600F0D4
:10186000A2F903B0BDE8F08F40462146F9E7001B1E
:1018700061EB0201001C41F5801300185B41201848
:10188000A2F5001747EB030140EAD570B6196D4188
:1018900011E06D084FEA360645EAC0754FEA075277
:1018A000001B61EB0201001C41F5801149084FEA61
:1018B00030000019514132462B4603B0BDE8F04FCD
:1018C00000F062B90098012240000023D0EB020230
:1018D00063EBE073009821464FEAE074B8EB000038
:1018E00061EB0401E9E783F000435BE781F000412D
:1018F00058E72DE9FE4F81EA030404F0004421F08B
:10190000004100944FF0000B23F0004350EA010423
:101910005ED052EA03045BD0C3F30A54C1F30A5504
:101920002C44A4F2F3340194A0FB0254C1F313013C
:1019300041F48011C3F3130343F4801301FB024409
:1019400000FB034E840A970A44EA815447EA83570E
:10195000A4FB076802958D0A05FB07854FEA932CC7
:1019600004FB0C542705029D4FEA065847EA163738
:10197000B5EB08056EEB070C870E920E47EA811750
:1019800042EA8312A7FB0201B6EB0B0164EB0004F1
:101990002B0D43EA0C335E1844EB1C50DA465146DB
:1019A000E7FB0201C5F313044FEA0B3343EA145378
:1019B0004FEA0432019C43EA0603A4F10C040294AA
:1019C000009CCDE900B400F0EEF803B0BDE8F08F64
:1019D00000200146F9E72DE9F04D81EA030404F007
:1019E000004B21F0004514464FF0000A23F000415F
:1019F00050EA050220D054EA01021DD0C5F30A576F
:101A00000246C5F31303C1F31300C1F30A5640F4B1
:101A1000801543F48013A7EB0608101BD64608F286
:101A2000FD3873EB050002D308F1010801E09218BC
:101A30005B41B8F1000F03DA00200146BDE8F08DEC
:101A400000204FF48011064684460EE0171B73EB0E
:101A5000050705D3121B63EB050306434CEA010C93
:101A600049084FEA300092185B4150EA0107EDD176
:101A700052EA030012D082EA040083EA0501084317
:101A800005D0101BAB4106D20122002306E0002244
:101A90004FF0004302E06FF0010253101AEB060012
:101AA0004CEB085110EB0A0041EB0B01BDE8F04D87
:101AB00000F06AB80EB540F2334102910021CDE941
:101AC00000110A460B4600F06EF803B000BDC1F3EA
:101AD0000A5210B5C1F3130140F2FF3341F48011F3
:101AE0009A4201DA002010BD40F233439A42A2F23A
:101AF000334203DC524200F025F810BD904010BD87
:101B000000F0004230F000400AD0C10D01F56071D4
:101B1000C0F3160042EA0151C20840071143704762
:101B2000002001467047202A04DB203A00FA02F127
:101B3000002070479140C2F1200320FA03F31943BB
:101B400090407047202A04DB203A21FA02F000215D
:101B5000704721FA02F3D040C2F1200291400843BD
:101B600019467047202A06DBCB17203A41FA02F0CB
:101B700043EAE07306E041FA02F3D040C2F12002EA
:101B8000914008431946704710B5141E73F10004C4
:101B900008DA401C41F1000192185B411A4301D15F
:101BA00020F0010010BD2DE9F04D92469B4611B189
:101BB000B1FA81F202E0B0FA80F220329046FFF7EB
:101BC000B2FF04460F4640EA0A0041EA0B015346C1
:101BD0005A46084313D0114653EA010019D0C8F100
:101BE00040025046FFF7AEFF05460E4650465946A6
:101BF0004246FFF798FF084305D0012004E0204645
:101C00003946BDE8F08D0020054346EAE0762C43D6
:101C100037430A986305E40AA0EB08000022FD0A96
:101C200044EA47540A3002D500200146E9E701059D
:101C300010196941DDE9084500196941BDE8F04D19
:101C4000A2E70000064C074D06E0E06840F0010303
:101C500094E8070098471034AC42F6D3FEF798FAA0
:101C600074FB000894FB000870B58C1810F8015B39
:101C700015F0070301D110F8013B2A1106D110F825
:101C8000012B03E010F8016B01F8016B5B1EF9D129
:101C90002B0705D40023521E0DD401F8013BFAE7AF
:101CA00010F8013BCB1A921C03E013F8015B01F81A
:101CB000015B521EF9D5A142D8D3002070BD0000AF
:101CC00000B585B00D48006840F010000B49086071
:101CD000022000900A480190022003900020029008
:101CE0006946084804F07EF800220F21072005F01D
:101CF0002DFB072005F01DFB05B000BD303802406C
:101D0000000011100010024000B585B00D480068B9
:101D100040F010000B49086008200090012001905D
:101D200000200290012003906946074804F05AF809
:101D300001220821044804F05DF908F0C5F905B056
:101D400000BD0000303802400010024070B5064669
:101D50000C461546012D02DD44F0C00401E044F0BC
:101D60008004002208210B4804F044F9204608F0C2
:101D7000F7F906E0002008F0F3F93070681E85B22C
:101D8000761C002DF6DC01220821024804F032F90D
:101D900070BD00000010024070B505460E461446A6
:101DA000012C01DD46F04006002208210A4804F01B
:101DB00021F9304608F0D4F905E0287808F0D0F988
:101DC000601E84B26D1C012CF7DA01220821024842
:101DD00004F010F970BD00000010024000B585B09D
:101DE0001248006840F00800104908601020009078
:101DF00001200190022003900020029069460C48C7
:101E000003F0F0FF07F080FB00221021084804F0E7
:101E1000F1F8052003F087FF01221021044804F0A7
:101E2000E9F8052003F07FFF05B000BD303802401F
:101E3000000C024070B504460D462946204607F0C6
:101E4000C5FB70BD70B504460D46164632462946A0
:101E5000204607F0DBFB70BD10B504480068C06980
:101E600018B102490968C869804710BDF800002010
:101E700010B504480068C06818B102490968C8680C
:101E8000804710BDF800002030B585B00125002442
:101E9000002002903B49486880473B283DD13948A3
:101EA0003949086040208DF80C0000208DF80D00A5
:101EB00007208DF80E0000208DF80F008DF810001F
:101EC0009DF80D009DF80C1008439DF80F10084375
:101ED0009DF8101008439DF80E1040EA01042A48AE
:101EE000006801682046884720208DF808000120FE
:101EF0008DF809000C208DF80A009DF808009DF867
:101F0000091008439DF80A1040EA010420461E4AC1
:101F10001268116A8847002531E01C4948688047EB
:101F20003F282BD119481849086060208DF800001F
:101F300007208DF8010000208DF802008DF80300C5
:101F40008DF804008DF805009DF800009DF8011043
:101F500040EA01049DF802009DF8031008439DF833
:101F6000041008439DF80510084344EA002406487D
:101F70000068016820468847002500E001252846C2
:101F800005B030BDB0000020F80000208400002023
:101F900010B5002405480068406820B1034909686D
:101FA000486880470446204610BD0000F800002025
:101FB0007047000010B51A491A4800F067F81A492E
:101FC00009681A4A02EB811040221549FFF7BAFB53
:101FD000002017490860144800683F280BD10120F1
:101FE000144908600020144908600F480068401C2C
:101FF0000D49086012E00C4800687F2809D10120D3
:102000000C490860C0020C490860002006490860BD
:1020100004E005480068401C0349086010BD00004A
:10202000B05B0020F05B002040000020B03B0020AF
:10203000440000204C000020500000207FB50446E2
:102040000E461546684605F0D3F904F0070048B976
:1020500001200090C020019006210291684605F001
:10206000EFF909E0012000904FF4917001900221F6
:102070000291684605F0E4F92946204607F044FF3E
:10208000204607F0E1FA002004B070BDF0B5A1B021
:1020900006460D46002400BF0AE036F81400000A88
:1020A00016F8141040EA012001A921F81400641C5C
:1020B000402CF2D3002410E004EB840202EBC402B3
:1020C0000F4F07EB820305EB440101AA02EB44002A
:1020D0000C4A1288FEF7E7F8641C002CECD00024B0
:1020E00008E0600035F81000012101EB440125F8FB
:1020F0001100641C102CF4D3002021B0F0BD0000AE
:10210000285E00200001002070B504460D4601261F
:10211000AAB22146024804F0B5FF0026304670BD41
:10212000E85D002010B50124024804F0FBFD002406
:10213000204610BDE85D002010B51A491A48FFF787
:10214000A5FF1A4909681A4A02EB81104022154975
:10215000FFF7F8FA002017490860144800683F2884
:102160000BD10120144908600020144908600F4871
:102170000068401C0D49086012E00C4800687F2888
:1021800009D101200C490860C0020C4908600020F8
:102190000649086004E005480068401C03490860DF
:1021A00010BD0000B05B0020705C002040000020EB
:1021B000B03B0020440000204C00002050000020D4
:1021C00070B504460D462A462146024804F0E8FF51
:1021D00070BD0000A85D002000BFFEE7012001499E
:1021E00008707047340000202DE9FF4105460E4677
:1021F000144601274FF00008684605F0F9F804F08E
:10220000070048B901200090C020019006210291EA
:10221000684605F015F909E0012000904FF491702F
:10222000019002210291684605F00AF90F484168C1
:1022300094208847804608F0F800E02804D10B4835
:102240000B490860002700E001275FB908480068D3
:10225000234632462946D0F800C09420E047204665
:1022600007F092FA384604B0BDE8F081540000202F
:10227000FC00002010B506480068C168942088471B
:1022800008B1012010BD034804F068FC0020F9E704
:10229000FC000020A85D002070B505460C46A2B2E7
:1022A0000C480068294683689420984708B10120AB
:1022B00070BD4FF48030B0EB540F01D9600801E0DD
:1022C0004FF6FF7082B22946034804F069FF0020F0
:1022D000EEE70000FC000020A85D002010B50648D5
:1022E000006801699420884708B1012010BD0348A7
:1022F00004F0A0FC0020F9E7FC000020A85D00200D
:1023000010B504460B4804F00DFD0B48006821464B
:1023100042699420904708B1012010BD012C07D1DB
:10232000012003F000FD00221021044803F062FEAA
:102330000020F2E7A85D0020FC000020000C024015
:1023400010B502200349087081020348FFF738FFE7
:1023500010BD0000340000201413002010B586B01A
:10236000044634B91C48006840F008001A49086067
:1023700017E0012C06D11848006840F00800164903
:1023800008600EE0022C06D11348006840F00800F7
:102390001149086005E01048006840F008000E4947
:1023A00008600E4830F8140001900120029003905C
:1023B000022004900A4951F8240001A903F012FDFB
:1023C000064A32F81410064A52F82400002203F09C
:1023D00011FE06B010BD000030380240A8FA000817
:1023E000DC00002010B50446044A32F81410044AF8
:1023F00052F82400002203F0FDFD10BDA8FA0008E9
:10240000DC00002010B50446044A32F81410044AD7
:1024100052F82400012203F0EDFD10BDA8FA0008D7
:10242000DC00002010B50446044A32F81410044AB7
:1024300052F8240003F0DAFD10BD0000A8FA0008ED
:10244000DC00002030B585B004460D461A4800680F
:1024500040F001001849086075B9184830F81400B8
:10246000009000200190029002200390144951F83E
:102470002400694603F0B6FC012D1BD10F4830F84B
:102480001400009000200290022003900D4801905B
:102490000B4951F82400694603F0A4FC0A49095D80
:1024A00048B200220F2104F051FF0749095D48B2EC
:1024B00004F03FFF05B030BD30380240B0FA0008EC
:1024C000EC00002000001110B2FA000800BFFEE787
:1024D0002DE9F04105460E46174600243A4631469E
:1024E0002846FFF7AFFC2046BDE8F08110B50A484A
:1024F000006810B101280CD105E00848006808B94F
:102500000AF02AFF06E00020044908600AF0A4FF50
:1025100000E000BF00BF10BD100000200800002038
:1025200010B50249886B01F05DF810BDE85D002030
:1025300010B50249486B01F055F810BDA85D0020A8
:1025400010B5046863608468402C04D10468A260FC
:102550000468E16003E00468A1600468E26010BD03
:102560000146002205E0002301F5537040F82230B7
:10257000521C0F2AF7D3002204E0002301F11C00B3
:102580008354521CB2F5007FF7D3002008704870C6
:10259000012088700020C1F8880301230B764023B6
:1025A0008B7100234B7681F81C32012381F81D3298
:1025B0007047704710B5012003F006FC10BD10B540
:1025C000022003F001FC10BD0120FFF71BFF00BF3C
:1025D000FEE7000070B50246012400230F48007A90
:1025E000012818DC00200D4D2D7A0C4E7055304618
:1025F000057A001D40F82520051F287A451C3572F4
:10260000034603F1300008703A2048702F2088708C
:102610000020C8700024204670BD0000145F002018
:1026200070B5044600252068006820F0010021688C
:10263000086003F0E5FC054612E003F0E1FC401BF6
:10264000B0F57A7F0CD9E06C40F02000E06400BF68
:10265000002084F8340000BF032084F8350070BDEA
:102660002068006800F001000028E6D100BF84F86F
:10267000340000BF012084F835000020EFE700009F
:10268000014609B90120704791F83500022801D1AF
:102690000120F8E70868006820F001000A6810606F
:1026A00000200A6810600A6850600A6890600A6832
:1026B000D0600A68106121200A685061F94A0868F0
:1026C00090425CD9F84A0868904201D1F74852E03C
:1026D000F44A483A0868904201D1F4484BE0F24A83
:1026E00060320868904201D1F04844E0ED4A183267
:1026F0000868904201D1ED483DE0EB4A1832086885
:10270000904201D1801536E0E64A303A086890429E
:1027100001D180152FE0E44A78320868904201D157
:10272000801528E0DF4A30320868904201D18015D8
:1027300021E0DD4A30320868904202D14FF4802017
:1027400019E0D84A183A0868904202D14FF4802024
:1027500011E0D54A90320868904202D14FF48020AF
:1027600009E0D04A48320868904202D14FF48020F4
:1027700001E04FF08070CB4A4C3A10601FE1CA4A2A
:10278000A832086890425CD9C74A0868904201D1D3
:10279000C64852E0C34A483A0868904201D1C3484B
:1027A0004BE0C14A60320868904201D1BF4844E022
:1027B000BC4A18320868904201D1BC483DE0BA4A90
:1027C00018320868904201D1801536E0B54A303A97
:1027D0000868904201D180152FE0B34A783208682A
:1027E000904201D1801528E0AE4A3032086890420C
:1027F00001D1801521E0AC4A30320868904202D104
:102800004FF4802019E0A74A183A0868904202D194
:102810004FF4802011E0A44A90320868904202D11F
:102820004FF4802009E09F4A48320868904202D164
:102830004FF4802001E04FF080709A4A503A1060C7
:10284000BDE0994A4832086890425CD9964A0868C7
:10285000904201D1954852E0924A483A0868904225
:1028600001D192484BE0904A60320868904201D111
:102870008E4844E08B4A18320868904201D18B4858
:102880003DE0894A18320868904201D1801536E04F
:10289000844A303A0868904201D180152FE0824A7C
:1028A00078320868904201D1801528E07D4A3032A4
:1028B0000868904201D1801521E07B4A30320868D7
:1028C000904202D14FF4802019E0764A183A086805
:1028D000904202D14FF4802011E0734A9032086890
:1028E000904202D14FF4802009E06E4A48320868D5
:1028F000904202D14FF4802001E04FF080706A4A8C
:10290000103AD0605BE0684A0868904201D167489D
:1029100052E0644A483A0868904201D163484BE06B
:10292000614A60320868904201D1604844E05D4AE3
:1029300018320868904201D15C483DE05A4A18328A
:102940000868904201D1801536E0564A303A08684E
:10295000904201D180152FE0534A783208689042A6
:1029600001D1801528E04F4A30320868904201D1E9
:10297000801521E04C4A30320868904202D14FF471
:10298000802019E0474A183A0868904202D14FF473
:10299000802011E0444A90320868904202D14FF4FE
:1029A000802009E03F4A48320868904202D14FF443
:1029B000802001E04FF080703B4A103A9060394A25
:1029C000086890425CD9384A0868904201D12020BA
:1029D00052E0344A483A0868904201D120204BE046
:1029E000314A60320868904201D1202044E02D4AEB
:1029F00018320868904201D120203DE02A4A18325E
:102A00000868904201D1C01436E0264A303A08687E
:102A1000904201D1C0142FE0234A783208689042D6
:102A200001D1C01428E01F4A30320868904201D119
:102A3000C01421E01C4A30320868904202D14FF4A1
:102A4000001019E0174A183A0868904202D14FF472
:102A5000001011E0144A90320868904202D14FF4FD
:102A6000001009E00F4A48320868904202D14FF442
:102A7000001001E04FF000600A4A4C3A106021E17A
:102A8000094AA8320868904260D9074A086890420B
:102A900001D1202056E0034A483A0868904207D105
:102AA00020204FE058640240106002400400800083
:102AB000F84A0868904201D1202043E0F64A0868AD
:102AC000904201D120203DE0F24A483A0868904205
:102AD00001D1C01436E0F04A483A0868904201D16A
:102AE000C0142FE0EB4A18320868904201D1C0149C
:102AF00028E0E94A18320868904201D1C01421E068
:102B0000E44A303A0868904202D14FF4001019E0CC
:102B1000E14A303A0868904202D14FF4001011E0C7
:102B2000DC4A30320868904202D14FF4001009E0CC
:102B3000D94A30320868904202D14FF4001001E0C7
:102B40004FF00060D44A683A1060BBE0D14A183AAE
:102B5000086890425BD9CF4A603A0868904201D138
:102B6000202050E0CC4A603A0868904201D12020F1
:102B700049E0C84A0868904201D1202043E0C64A93
:102B80000868904201D120203DE0C24A483A0868D6
:102B9000904201D1C01436E0BF4A483A08689042DA
:102BA00001D1C0142FE0BB4A18320868904201D10D
:102BB000C01428E0B84A18320868904201D1C01405
:102BC00021E0B44A303A0868904202D14FF4001034
:102BD00019E0B14A303A0868904202D14FF400102F
:102BE00011E0AC4A30320868904202D14FF4001034
:102BF00009E0A94A30320868904202D14FF400102F
:102C000001E04FF00060A34A703AD0605AE0A14A58
:102C1000603A0868904201D1202050E09E4A603A14
:102C20000868904201D1202049E09A4A0868904201
:102C300001D1202043E0984A0868904201D1202029
:102C40003DE0944A483A0868904201D1C01436E009
:102C5000914A483A0868904201D1C0142FE08D4A49
:102C600018320868904201D1C01428E08A4A18320C
:102C70000868904201D1C01421E0864A303A0868C1
:102C8000904202D14FF4001019E0834A303A0868AC
:102C9000904202D14FF4001011E07E4A30320868B1
:102CA000904202D14FF4001009E07B4A30320868AC
:102CB000904202D14FF4001001E04FF00060754ADD
:102CC000703A9060744A183A086890425BD9714A29
:102CD000603A0868904201D1082050E06E4A603A9C
:102CE0000868904201D1082049E06A4A0868904289
:102CF00001D1082043E0684A0868904201D10820C9
:102D00003DE0644A483A0868904201D1401536E0F7
:102D1000614A483A0868904201D140152FE05D4A67
:102D200018320868904201D1401528E05A4A1832FA
:102D30000868904201D1401521E0564A303A0868AF
:102D4000904202D14FF4002019E0534A303A08680B
:102D5000904202D14FF4002011E04E4A3032086810
:102D6000904202D14FF4002009E04B4A303208680B
:102D7000904202D14FF4002001E04FF00070464A2B
:102D8000643A10601EE1434A4832086890425BD9B9
:102D9000404A603A0868904201D1082050E03E4A1B
:102DA000603A0868904201D1082049E0394A086831
:102DB000904201D1082043E0374A0868904201D18F
:102DC00008203DE0334A483A0868904201D1401556
:102DD00036E0314A483A0868904201D140152FE068
:102DE0002C4A18320868904201D1401528E02A4A3E
:102DF00018320868904201D1401521E0254A303A46
:102E00000868904202D14FF4002019E0224A303A7B
:102E10000868904202D14FF4002011E01D4A303280
:102E20000868904202D14FF4002009E01A4A30327B
:102E30000868904202D14FF4002001E04FF000708A
:102E4000154A683A1060BDE0124A183A0868904284
:102E50005DD9104A603A0868904201D1082052E0DA
:102E60000D4A603A0868904201D108204BE0094AB7
:102E70000868904201D1082045E0074A086890425E
:102E800001D108203FE0034A483A0868904205D142
:102E9000401538E07060024070640240FA4A0868E9
:102EA000904201D140152EE0F84A0868904201D1C5
:102EB000401528E0F44A60320868904201D140157C
:102EC00021E0F24A483A0868904202D14FF40020CB
:102ED00019E0ED4A18320868904202D14FF4002000
:102EE00011E0EA4A18320868904202D14FF40020FB
:102EF00009E0E54A78320868904202D14FF4002098
:102F000001E04FF00070E14A883AD0605AE0DF4AB1
:102F1000783A0868904201D1082050E0DA4A183A1D
:102F20000868904201D1082049E0D84A183A086858
:102F3000904201D1082042E0D34A483208689042CA
:102F400001D108203BE0D14A603A0868904201D1A3
:102F5000401534E0CC4A0868904201D140152EE07B
:102F6000CA4A0868904201D1401528E0C64A60323A
:102F70000868904201D1401521E0C44A483A0868E7
:102F8000904202D14FF4002019E0BF4A183208687D
:102F9000904202D14FF4002011E0BC4A1832086878
:102FA000904202D14FF4002009E0B74A7832086815
:102FB000904202D14FF4002001E04FF00070B34A7C
:102FC000883A9060B04A3032086890425BD9AF4A84
:102FD000783A0868904201D1AD4850E0AA4A183AC0
:102FE0000868904201D1AA4849E0A84A183A0868FE
:102FF000904201D1A64842E0A34A48320868904274
:1030000001D1A3483BE0A14A603A0868904201D14F
:10301000402034E09C4A0868904201D140202EE0D4
:103020009A4A0868904201D1402028E0964A6032CE
:103030000868904201D1402021E0944A483A08684B
:10304000904202D14FF4803019E08F4A183208685C
:10305000904202D14FF4803011E08C4A1832086857
:10306000904202D14FF4803009E0874A78320868F4
:10307000904202D14FF4803001E04FF48000824A48
:103080001C3A106021E1814A3032086890425BD9D5
:103090007E4A783A0868904201D17D4850E07A4AE9
:1030A000183A0868904201D1794849E0774A183ABD
:1030B0000868904201D1764842E0734A4832086875
:1030C000904201D172483BE0704A603A08689042F1
:1030D00001D1402034E06C4A0868904201D1402080
:1030E0002EE06A4A0868904201D1402028E0664AF2
:1030F00060320868904201D1402021E0634A483A9A
:103100000868904202D14FF4803019E05E4A1832CC
:103110000868904202D14FF4803011E05B4A1832C7
:103120000868904202D14FF4803009E0564A783264
:103130000868904202D14FF4803001E04FF48000E3
:10314000514A203A1060C0E0504A303A0868904234
:103150005BD94E4A783A0868904201D14C4850E019
:10316000494A183A0868904201D1494849E0474A1B
:10317000183A0868904201D1454842E0424A483234
:103180000868904201D142483BE0404A603A0868F2
:10319000904201D1402034E03B4A0868904201D17E
:1031A00040202EE0394A0868904201D1402028E0B2
:1031B000354A60320868904201D1402021E0334A0C
:1031C000483A0868904202D14FF4803019E02E4A04
:1031D00018320868904202D14FF4803011E02B4A37
:1031E00018320868904202D14FF4803009E0264A34
:1031F00078320868904202D14FF4803001E04FF4F9
:103200008000224A883AD0605FE0204A783A086815
:10321000904201D11E4855E01B4A183A0868904276
:1032200001D11B484EE0194A183A0868904201D172
:10323000174847E0144A48320868904201D11448C0
:1032400040E0124A603A0868904201D1402039E0DB
:103250000D4A0868904201D1402033E00B4A0868CB
:10326000904201D140202DE0074A60320868904228
:1032700001D1402026E0054A483A0868904209D129
:103280004FF480301EE00000286402408860024055
:1032900001008000D14A0868904202D14FF480308A
:1032A00010E0CF4A0868904202D14FF4803009E024
:1032B000CA4A60320868904202D14FF4803001E07F
:1032C0004FF48000C64AA03A9060C44A1832086899
:1032D00090425BD9C24A903A0868904201D11020CE
:1032E00050E0BE4A303A0868904201D1102049E0CF
:1032F000BB4A303A0868904201D1102042E0B74AF8
:1033000030320868904201D110203BE0B44A783A4C
:103310000868904201D1001534E0B04A183A0868B4
:10332000904201D100152DE0AD4A183A086890424C
:1033300001D1001526E0A94A48320868904201D11F
:1033400000151FE0A64A603A0868904202D14FF487
:10335000801017E0A14A0868904202D14FF4801013
:1033600010E09F4A0868904202D14FF4801009E0B3
:103370009A4A60320868904202D14FF4801001E00E
:103380004FF08060954A343A10601CE1944A18323C
:10339000086890425BD9924A903A0868904201D1FD
:1033A000102050E08D4A303A0868904201D1102038
:1033B00049E08B4A303A0868904201D1102042E03F
:1033C000864A30320868904201D110203BE0844A9E
:1033D000783A0868904201D1001534E07F4A183AE3
:1033E0000868904201D100152DE07D4A183A08681E
:1033F000904201D1001526E0784A48320868904290
:1034000001D100151FE0764A603A0868904202D167
:103410004FF4801017E0714A0868904202D14FF4CF
:10342000801010E06E4A0868904202D14FF480107C
:1034300009E06A4A60320868904202D14FF4801075
:1034400001E04FF08060654A383A1060BBE0644AA2
:10345000483A086890425BD9614A903A08689042BD
:1034600001D1102050E05D4A303A0868904201D105
:10347000102049E05A4A303A0868904201D11020A1
:1034800042E0564A30320868904201D110203BE0B9
:10349000534A783A0868904201D1001534E04F4A07
:1034A000183A0868904201D100152DE04C4A183AAC
:1034B0000868904201D1001526E0484A4832086861
:1034C000904201D100151FE0454A603A08689042D9
:1034D00002D14FF4801017E0404A0868904202D1B0
:1034E0004FF4801010E03E4A0868904202D14FF439
:1034F000801009E0394A60320868904202D14FF4E6
:10350000801001E04FF08060354AA03AD0605AE068
:10351000334A903A0868904201D1102050E02F4A77
:10352000303A0868904201D1102049E02C4A303AE4
:103530000868904201D1102042E0284A30320868E1
:10354000904201D110203BE0254A783A0868904229
:1035500001D1001534E0214A183A0868904201D19F
:1035600000152DE01E4A183A0868904201D1001556
:1035700026E01A4A48320868904201D100151FE03F
:10358000174A603A0868904202D14FF4801017E061
:10359000124A0868904202D14FF4801010E0104A9D
:1035A0000868904202D14FF4801009E00B4A603263
:1035B0000868904202D14FF4801001E04FF0806023
:1035C000074AA03A90600020C86481F8350000BF27
:1035D00081F8340000BF00BFFFF755B840640240D7
:1035E000A060024010B50446F949206888425DD9C0
:1035F000F74854380068F74A2168914201D1082100
:1036000052E0F34A483A2168914201D108214BE047
:10361000F04A60322168914201D1082144E0EC4A2D
:1036200018322168914201D108213DE0E94A18325F
:103630002168914201D1491536E0E54A303A2168C6
:10364000914201D149152FE0E24A78322168914236
:1036500001D1491528E0DE4A30322168914201D17A
:10366000491521E0DB4A30322168914202D14FF402
:10367000002119E0D64A183A2168914202D14FF44C
:10368000002111E0D34A90322168914202D14FF4D7
:10369000002109E0CE4A48322168914202D14FF41C
:1036A000002101E04FF00071084022E1C949A83132
:1036B000206888425DD9C64858380068C54A2168E4
:1036C000914201D1082152E0C14A483A2168914211
:1036D00001D108214BE0BF4A60322168914201D1FB
:1036E000082144E0BA4A18322168914201D10821E8
:1036F0003DE0B84A18322168914201D1491536E0BF
:10370000B34A303A2168914201D149152FE0B14ABC
:1037100078322168914201D1491528E0AC4A303213
:103720002168914201D1491521E0AA4A303221682D
:10373000914202D14FF4002119E0A54A183A2168BC
:10374000914202D14FF4002111E0A24A9032216847
:10375000914202D14FF4002109E09D4A483221688C
:10376000914202D14FF4002101E04FF00071084076
:10377000BFE098494831206888425DD995481038A3
:103780004068944A2168914201D1082152E0904A50
:10379000483A2168914201D108214BE08D4A6032BC
:1037A0002168914201D1082144E0894A18322168F8
:1037B000914201D108213DE0864A183221689142A8
:1037C00001D1491536E0824A303A2168914201D14F
:1037D00049152FE07F4A78322168914201D149157D
:1037E00028E07B4A30322168914201D1491521E01D
:1037F000784A30322168914202D14FF4002119E019
:10380000734A183A2168914202D14FF4002111E025
:10381000704A90322168914202D14FF4002109E0B0
:103820006B4A48322168914202D14FF4002101E0F5
:103830004FF0007108405CE0664810380068654A47
:103840002168914201D1082152E0614A483A216839
:10385000914201D108214BE05E4A603221689142D9
:1038600001D1082144E05A4A18322168914201D11D
:1038700008213DE0574A18322168914201D149158B
:1038800036E0534A303A2168914201D149152FE080
:10389000504A78322168914201D1491528E04C4ABA
:1038A00030322168914201D1491521E0494A303234
:1038B0002168914202D14FF4002119E0444A183A9C
:1038C0002168914202D14FF4002111E0414A903227
:1038D0002168914202D14FF4002109E03C4A48326C
:1038E0002168914202D14FF4002101E04FF00071B4
:1038F0000840002870D02068006800F0040000280C
:10390000F8D02068006820F0040021680860304981
:103910002068884261D92F492068884201D1082057
:1039200052E02B4948392068884201D108204BE0F9
:10393000284960312068884201D1082044E02449A8
:1039400018312068884201D108203DE02149183112
:103950002068884201D1401536E01D493039206881
:10396000884201D140152FE01A49783120688842F9
:1039700001D1401528E0164930312068884201D134
:10398000401521E0134930312068884202D14FF4BC
:10399000002019E00E4918392068884202D14FF4FE
:1039A000002011E00B4990312068884202D14FF489
:1039B000002009E0064948312068884202D14FF4CE
:1039C000002001E04FF0007001494C39086023E10C
:1039D00058640240106002402FE1F8492068884294
:1039E0005CD9F649A8392068884201D1082051E005
:1039F000F3492068884201D108204BE0EF4948395B
:103A00002068884201D1082044E0ED4960312068F7
:103A1000884201D108203DE0E84990392068884279
:103A200001D1401536E0E64918312068884201D1BD
:103A300040152FE0E14930392068884201D1401516
:103A400028E0DF4978312068884201D1401521E023
:103A5000DA4978392068884202D14FF4002019E011
:103A6000D74930312068884202D14FF4002011E05C
:103A7000D24918392068884202D14FF4002009E069
:103A8000CF4990312068884202D14FF4002001E0F4
:103A90004FF00070CA4908390860BDE0C749603975
:103AA000206888425CD9C549A8392068884201D17C
:103AB000082051E0C2492068884201D108204BE02B
:103AC000BE4948392068884201D1082044E0BC49F9
:103AD00060312068884201D108203DE0B749903923
:103AE0002068884201D1401536E0B5491831206878
:103AF000884201D140152FE0B04930392068884212
:103B000001D1401528E0AE4978312068884201D1C2
:103B1000401521E0A94978392068884202D14FF444
:103B2000002019E0A64930312068884202D14FF4C4
:103B3000002011E0A14918392068884202D14FF4D1
:103B4000002009E09E4990312068884202D14FF45C
:103B5000002001E04FF000709849B839C8605BE080
:103B60009649A8392068884201D1082051E094493B
:103B70002068884201D108204BE0904948392068EC
:103B8000884201D1082044E08D4960312068884294
:103B900001D108203DE0894990392068884201D14F
:103BA000401536E0864918312068884201D1401519
:103BB0002FE0824930392068884201D1401528E041
:103BC0007F4978312068884201D1401521E07B4946
:103BD00078392068884202D14FF4002019E07849F2
:103BE00030312068884202D14FF4002011E073493F
:103BF00018392068884202D14FF4002009E070494A
:103C000090312068884202D14FF4002001E04FF04B
:103C100000706A49B8398860E06C40F00100E064E7
:103C2000042084F8350000BF002084F8340000BF71
:103C3000A06C10B12046A16C8847614948312068CA
:103C400088425DD95E480C3800685C4AA83A216811
:103C5000914201D15B4951E0594A2168914201D119
:103C600058494BE0554A483A2168914201D155499B
:103C700044E0534A60322168914201D151493DE00C
:103C80004E4A903A2168914201D1402136E04C4A97
:103C900018322168914201D140212FE0474A303A41
:103CA0002168914201D1402128E0454A78322168BB
:103CB000914201D1402121E0404A783A2168914265
:103CC00002D14FF4803119E03D4A303221689142EF
:103CD00002D14FF4803111E0384A183A21689142FC
:103CE00002D14FF4803109E0354A90322168914287
:103CF00002D14FF4803101E04FF48001084026E109
:103D00002E492068884263D92D48103800682B4A14
:103D1000A83A2168914201D12A4957E0284A2168EE
:103D2000914201D1274951E0244A483A2168914201
:103D300001D124494AE0224A60322168914201D1EE
:103D4000204943E01D4A903A2168914201D1402127
:103D50003CE01B4A18322168914201D1402135E0F4
:103D6000164A303A2168914201D140212EE0144A8E
:103D700078322168914201D1402127E00F4A783AF8
:103D80002168914202D14FF480311FE00C4A303259
:103D90002168914202D14FF4803117E0074A183A66
:103DA0002168914202D14FF480310FE0044A9032F1
:103DB0002168914208D14FF4803107E0B860024099
:103DC00010640240010080004FF480010840BEE012
:103DD000F949206888425DD9F74858384068F64A62
:103DE000483A2168914201D1F44951E0F44A2168EE
:103DF000914201D1F1494BE0EF4A183221689142DA
:103E000001D1EE4944E0EE4A60322168914201D18D
:103E1000EA493DE0E84A303A2168914201D1402127
:103E200036E0E74A18322168914201D140212FE063
:103E3000E14A30322168914201D1402128E0E04A34
:103E400078322168914201D1402121E0DA4A183AC2
:103E50002168914202D14FF4803119E0D84A3032C2
:103E60002168914202D14FF4803111E0D24A4832A8
:103E70002168914202D14FF4803109E0D04A90325A
:103E80002168914202D14FF4803101E04FF480016A
:103E900008405CE0C84858380068C74A483A21687A
:103EA000914201D1C54951E0C54A2168914201D1F1
:103EB000C2494BE0C04A18322168914201D1BF4942
:103EC00044E0BF4A60322168914201D1BB493DE0E4
:103ED000B94A303A2168914201D1402136E0B84ACE
:103EE00018322168914201D140212FE0B24A30328C
:103EF0002168914201D1402128E0B14A78322168FD
:103F0000914201D1402121E0AB4A183A2168914207
:103F100002D14FF4803119E0A94A30322168914230
:103F200002D14FF4803111E0A34A48322168914216
:103F300002D14FF4803109E0A14A903221689142C8
:103F400002D14FF4803101E04FF480010840002895
:103F500079D02068406900F08000002873D0206884
:103F6000406920F080002168486195494831206807
:103F700088425CD9904948392068884201D18F48ED
:103F800051E08F492068884201D18C484BE08A4932
:103F900018312068884201D1884844E0884960315E
:103FA0002068884201D185483DE083493039206846
:103FB000884201D1402036E081491831206888428A
:103FC00001D140202FE07C4930312068884201D166
:103FD000402028E07A4978312068884201D1402089
:103FE00021E0754918392068884202D14FF48030A9
:103FF00019E0734930312068884202D14FF4803093
:1040000011E06D4948312068884202D14FF4803078
:1040100009E06B4990312068884202D14FF480302A
:1040200001E04FF480006649091F086025E16249FC
:104030006031206888425DD95F49483920688842EC
:1040400002D15E4852E029E15D492068884201D1F1
:104050005A484BE0584918312068884201D15748E6
:1040600044E0574960312068884201D153483DE01F
:10407000514930392068884201D1402036E050490A
:1040800018312068884201D140202FE04A49303160
:104090002068884201D1402028E0494978312068D1
:1040A000884201D1402021E04349183920688842E4
:1040B00002D14FF4803019E0414930312068884204
:1040C00002D14FF4803011E03B49483120688842EA
:1040D00002D14FF4803009E039499031206888429C
:1040E00002D14FF4803001E04FF4800034490839A8
:1040F0000860C2E030492068884263D92E494839B7
:104100002068884201D12D4851E02D49206888421D
:1041100001D12A484BE0284918312068884201D152
:10412000264844E0264960312068884201D123486E
:104130003DE0214930392068884201D1402036E0F5
:104140001F4918312068884201D140202FE01A49C8
:1041500030312068884201D1402028E01849783168
:104160002068884201D1402021E013491839206895
:10417000884202D14FF4803019E011493031206873
:10418000884202D14FF4803011E00B494831206859
:10419000884202D14FF4803009E00949903120680B
:1041A000884202D14FF4803001E04FF48000024990
:1041B0005839C86061E005E05860024001008000A5
:1041C00010640240F9492068884201D1F84851E062
:1041D000F8492068884201D1F5484BE0F349603145
:1041E0002068884201D1F24844E0F24960312068F9
:1041F000884201D1EE483DE0EC4918312068884200
:1042000001D1402036E0EB4918312068884201D1C5
:1042100040202FE0E54978312068884201D14020D4
:1042200028E0E44978312068884201D1402021E02B
:10423000DE4930312068884202D14FF4803019E0E5
:10424000DC4930312068884202D14FF4803011E0DF
:10425000D64990312068884202D14FF4803009E07D
:10426000D44990312068884202D14FF4803001E077
:104270004FF48000CD4910398860E06C40F00200B6
:10428000E064042084F8350000BF002084F8340086
:1042900000BFA06C10B12046A16C8847C5494831C9
:1042A0002068884260D9C3480C380068BF4A21683A
:1042B000914202D1BE49C91C54E0BE4A21689142D4
:1042C00002D1BB49C91C4DE0B84A60322168914215
:1042D00002D1B749C91C45E0B64A60322168914213
:1042E00002D1B349C91C3DE0B04A1832216891425D
:1042F00001D1891536E0AF4A18322168914201D1C7
:1043000089152FE0A94A78322168914201D1891597
:1043100028E0A84A78322168914201D1891521E02C
:10432000A24A30322168914202D14FF4802119E033
:10433000A04A30322168914202D14FF4802111E02D
:104340009A4A90322168914202D14FF4802109E0CB
:10435000984A90322168914202D14FF4802101E0C5
:104360004FF08071084031E19049A83120688842BF
:1043700060D99048103800688C4A2168914202D177
:104380008B49C91C54E08B4A2168914202D188496B
:10439000C91C4DE0854A60322168914202D18449AE
:1043A000C91C45E0834A60322168914202D18049AC
:1043B000C91C3DE07D4A18322168914201D189151E
:1043C00036E07C4A18322168914201D189152FE0EC
:1043D000764A78322168914201D1891528E0754AE0
:1043E00078322168914201D1891521E06F4A30323B
:1043F0002168914202D14FF4802119E06D4A303298
:104400002168914202D14FF4802111E0674A903235
:104410002168914202D14FF4802109E0654A90322F
:104420002168914202D14FF4802101E04FF0807168
:104430000840CBE05D4948312068884260D95B483C
:1044400010384068594A2168914202D15849C91C24
:1044500054E0584A2168914202D15549C91C4DE0A7
:10446000524A60322168914202D15149C91C45E04B
:10447000504A60322168914202D14D49C91C3DE049
:104480004A4A18322168914201D1891536E0494AD9
:1044900018322168914201D189152FE0434A7832C0
:1044A0002168914201D1891528E0424A7832216879
:1044B000914201D1891521E03C4A30322168914274
:1044C00002D14FF4802119E03A4A303221689142FA
:1044D00002D14FF4802111E0344A90322168914298
:1044E00002D14FF4802109E0324A90322168914292
:1044F00002D14FF4802101E04FF08071084065E067
:104500002A4810380068294A2168914202D1284976
:10451000C91C5AE0274A2168914202D12449C91C8A
:1045200053E0224A60322168914202D12049C91CDD
:104530004BE0204A60322168914202D11C49C91CDB
:1045400043E01A4A18322168914201D189153CE0B2
:10455000184A18322168914201D1891535E0134A71
:1045600078322168914201D189152EE0114A7832C2
:104570002168914201D1891527E00C4A3032216827
:10458000914202D14FF480211FE00A4A3032216863
:10459000914202D14FF4802117E0044A9032216801
:1045A000914209D14FF480210FE0000010600240D9
:1045B0000100800010640240FA4A2168914202D151
:1045C0004FF4802101E04FF08071084088B32068EB
:1045D000006800F0020060B32068006820F002006C
:1045E00021680860EF494839206888425CD9EE4963
:1045F0002068884201D1ED4852E0EA4990392068AC
:10460000884201D1E9484BE0E7496031206888429F
:1046100001D1E64844E0E34930392068884201D1BD
:10462000E2483DE0E04918312068884202D1801517
:1046300036E067E1DB4978392068884201D180158E
:104640002EE0D94978312068884201D1801527E0D1
:10465000D44918392068884201D1801520E0D24918
:1046600030312068884202D14FF4802018E0CD49D3
:1046700060392068884202D14FF4802010E0CA4996
:1046800090312068884202D14FF4802008E0C5496B
:104690002068884202D14FF4802001E04FF0807002
:1046A000C049943908601CE1BF49A831206888429C
:1046B0005BD9BD492068884201D1BC4851E0B94965
:1046C00090392068884201D1B8484AE0B649603143
:1046D0002068884201D1B54843E0B24930392068AA
:1046E000884201D1B1483CE0AF4918312068884286
:1046F00001D1801535E0AB4978392068884201D175
:1047000080152EE0A84978312068884201D18015B3
:1047100027E0A44918392068884201D1801520E09B
:10472000A14930312068884202D14FF4802018E03E
:104730009C4960392068884202D14FF4802010E003
:10474000994990312068884202D14FF4802008E0D6
:1047500094492068884202D14FF4802001E04FF054
:104760008070904998390860BBE08F4948312068D3
:1047700088425BD98C492068884201D18B4851E03E
:10478000884990392068884201D188484AE08649A2
:1047900060312068884201D1844843E08149303942
:1047A0002068884201D181483CE07F491831206867
:1047B000884201D1801535E07A49783920688842ED
:1047C00001D180152EE0784978312068884201D1E6
:1047D000801527E0734918392068884201D1801577
:1047E00020E0714930312068884202D14FF48020A6
:1047F00018E06C4960392068884202D14FF480206B
:1048000010E0694990312068884202D14FF480203D
:1048100008E064492068884202D14FF4802001E01A
:104820004FF0807060491039C8605AE05E492068D6
:10483000884201D15D4851E05A4990392068884248
:1048400001D15A484AE0584960312068884201D174
:10485000564843E0534930392068884201D15348D3
:104860003CE0514918312068884201D1801535E07B
:104870004C4978392068884201D180152EE04A4998
:1048800078312068884201D1801527E045491839E0
:104890002068884201D1801520E0434930312068EA
:1048A000884202D14FF4802018E03E4960392068E8
:1048B000884202D14FF4802010E03B4990312068BB
:1048C000884202D14FF4802008E0364920688842AF
:1048D00002D14FF4802001E04FF08070324910394E
:1048E0008860E06C40F00400E064042084F8350047
:1048F00000BF002084F8340000BFA06C10B1204637
:10490000A16C8847274948392068884262D92548E0
:104910009C380068244A2168914201D1102157E057
:10492000204A903A2168914201D1102150E01E4A5C
:1049300060322168914201D1102149E0194A303A90
:104940002168914201D1102142E0174A18322168B2
:10495000914201D109153BE0124A783A216891420F
:1049600001D1091534E0104A78322168914201D111
:1049700009152DE00B4A183A2168914201D1091519
:1049800026E0094A30322168914202D14FF4801169
:104990001EE0044A603A2168914209D14FF4801127
:1049A00016E00000A0640240106002400400800095
:1049B000F74A2168914202D14FF4801108E0F54A8C
:1049C0002168914202D14FF4801101E04FF08061E3
:1049D00008401FE1EE491831206888425CD9ED4853
:1049E000A0380068EA4A903A2168914201D110212A
:1049F00050E0E84A903A2168914201D1102149E003
:104A0000E34A303A2168914201D1102142E0E14A63
:104A1000303A2168914201D110213BE0DC4A783ADA
:104A20002168914201D1091534E0DA4A783A2168C7
:104A3000914201D109152DE0D54A183A21689142D9
:104A400001D1091526E0D34A183A2168914201D1D3
:104A500009151FE0CE4A603A2168914202D14FF415
:104A6000801117E0CB4A603A2168914202D14FF49D
:104A700080110FE0C64A2168914202D14FF48011A3
:104A800008E0C44A2168914202D14FF4801101E04C
:104A90004FF080610840BDE0BD4948392068884238
:104AA0005CD9BB48A0384068B94A903A2168914225
:104AB00001D1102150E0B74A903A2168914201D1CA
:104AC000102149E0B24A303A2168914201D11021C7
:104AD00042E0B04A303A2168914201D110213BE0D6
:104AE000AB4A783A2168914201D1091534E0A94ACC
:104AF000783A2168914201D109152DE0A44A183A6B
:104B00002168914201D1091526E0A24A183A21688C
:104B1000914201D109151FE09D4A603A21689142F6
:104B200002D14FF4801117E09A4A603A216891420D
:104B300002D14FF480110FE0954A2168914202D1D1
:104B40004FF4801108E0934A2168914202D14FF45A
:104B5000801101E04FF0806108405BE08C48A03894
:104B600000688B4A903A2168914201D1102150E0AF
:104B7000884A903A2168914201D1102149E0844A43
:104B8000303A2168914201D1102142E0814A303A05
:104B90002168914201D110213BE07D4A783A216899
:104BA000914201D1091534E07A4A783A216891425C
:104BB00001D109152DE0764A183A2168914201D1B8
:104BC000091526E0734A183A2168914201D1091566
:104BD0001FE06F4A603A2168914202D14FF4801180
:104BE00017E06C4A603A2168914202D14FF480117B
:104BF0000FE0674A2168914202D14FF4801108E02A
:104C0000644A2168914202D14FF4801101E04FF0D3
:104C100080610840002878D02068006800F0080013
:104C2000002872D02068006800F48020A8B3594999
:104C30004839206888425CD95549903920688842B3
:104C400001D1102051E0534990392068884201D1A8
:104C500010204AE04E4930392068884201D11020A6
:104C600043E04C4930392068884201D110203CE0B3
:104C7000474978392068884201D1001535E0454917
:104C800078392068884201D100152EE04049183952
:104C90002068884202D1001527E05FE13D491839BC
:104CA0002068884201D100151FE039496039206829
:104CB000884202D14FF4801017E0364960392068ED
:104CC000884202D14FF480100FE0314920688842B9
:104CD00002D14FF4801008E02E492068884202D1AA
:104CE0004FF4801001E04FF080602A499439086049
:104CF00022E1274918312068884261D92449903936
:104D00002068884202D1102056E0BEE22149903945
:104D10002068884201D110204EE01D4930392068BA
:104D2000884201D1102047E01A4930392068884272
:104D300001D1102040E0164978392068884201D11D
:104D4000001539E0134978392068884201D10015EF
:104D500032E00F4918392068884201D100152BE054
:104D60000C4918392068884201D1001524E008490F
:104D700060392068884202D14FF480101CE0054958
:104D800060392068884207D14FF4801014E0000099
:104D9000A0600240A0640240FA492068884202D123
:104DA0004FF4801008E0F8492068884202D14FF49F
:104DB000801001E04FF08060F34998390860BBE053
:104DC000F0494839206888425BD9EE49903920681B
:104DD000884201D1102050E0EB4990392068884288
:104DE00001D1102049E0E74930392068884201D1DB
:104DF000102042E0E44930392068884201D1102077
:104E00003BE0E04978392068884201D1001534E060
:104E1000DD4978392068884201D100152DE0D94953
:104E200018392068884201D1001526E0D649183982
:104E30002068884201D100151FE0D24960392068FE
:104E4000884202D14FF4801017E0CF4960392068C2
:104E5000884202D14FF480100FE0CA49206888428E
:104E600002D14FF4801008E0C7492068884202D17F
:104E70004FF4801001E04FF08060C249A039C86053
:104E80005AE0C04990392068884201D1102050E092
:104E9000BD4990392068884201D1102049E0B949C4
:104EA00030392068884201D1102042E0B6493039BB
:104EB0002068884201D110203BE0B249783920684F
:104EC000884201D1001534E0AF4978392068884222
:104ED00001D100152DE0AB4918392068884201D175
:104EE000001526E0A84918392068884201D100152C
:104EF0001FE0A44960392068884202D14FF4801035
:104F000017E0A14960392068884202D14FF480102F
:104F10000FE09C492068884202D14FF4801008E0DD
:104F200099492068884202D14FF4801001E04FF087
:104F300080609449A03988602068006800F40020EF
:104F400018B9312084F835009AE12068006800F42F
:104F5000002078B3412084F8350091E12068006892
:104F600000F4807028B92068006820F008002168EB
:104F7000086085494839206888425CD98149903960
:104F80002068884201D1102051E07F499039206883
:104F9000884201D110204AE07A493039206888429D
:104FA00001D1102043E0784930392068884202D18D
:104FB00010203CE064E1734978392068884201D1CF
:104FC000001534E0704978392068884201D1001515
:104FD0002DE06C4918392068884201D1001526E07F
:104FE000694918392068884201D100151FE06549D8
:104FF00060392068884202D14FF4801017E062497E
:1050000060392068884202D14FF480100FE05D497A
:105010002068884202D14FF4801008E05A49206885
:10502000884202D14FF4801001E04FF08060564971
:105030009439086021E153491831206888425BD9CE
:10504000504990392068884201D1102050E04E49E3
:1050500090392068884201D1102049E0494930390F
:105060002068884201D1102042E047493039206849
:10507000884201D110203BE04249783920688842BB
:1050800001D1001534E0404978392068884201D1C7
:1050900000152DE03B4918392068884201D10015E0
:1050A00026E0394918392068884201D100151FE0EF
:1050B000344960392068884202D14FF4801017E0EB
:1050C000314960392068884202D14FF480100FE0E6
:1050D0002C492068884202D14FF4801008E02A4908
:1050E0002068884202D14FF4801001E04FF08060C8
:1050F000254998390860C0E022494839206888422B
:1051000060D9204990392068884201D1102055E0AB
:105110001D4990392068884201D110204EE019497C
:1051200030392068884201D1102047E016493039D3
:105130002068884201D1102040E012497839206867
:10514000884201D1001539E00F497839206888423A
:1051500001D1001532E00B4918392068884201D18D
:1051600000152BE0084918392068884201D1001544
:1051700024E0044960392068884207D14FF4801048
:105180001CE00000A0600240A0640240F7492068D3
:10519000884202D14FF4801010E0F549206888421F
:1051A00002D14FF4801009E0F04960312068884254
:1051B00002D14FF4801001E04FF08060EC49A0393B
:1051C000C8605AE0EA4990392068884201D110202D
:1051D00050E0E64930392068884201D1102049E08A
:1051E000E34930392068884201D1102042E0DF498C
:1051F00030312068884201D110203BE0DC49783909
:105200002068884201D1001534E0D8491839206857
:10521000884201D100152DE0D5491839206888420F
:1052200001D1001526E0D14948312068884201D1DA
:1052300000151FE0CE4960392068884202D14FF442
:10524000801017E0C9492068884202D14FF48010CD
:1052500010E0C7492068884202D14FF4801009E06D
:10526000C24960312068884202D14FF4801001E0C9
:105270004FF08060BE49A0398860312084F8350045
:10528000206C10B12046216C8847B849183120683D
:1052900088425CD9B5483C380068B54A903A2168E4
:1052A000914201D1202150E0B04A303A2168914228
:1052B00001D1202149E0AE4A303A2168914201D122
:1052C000202142E0A94A30322168914201D12021B7
:1052D0003BE0A74A783A2168914201D1C91434E0F1
:1052E000A24A183A2168914201D1C9142DE0A04A7E
:1052F000183A2168914201D1C91426E09B4A4832EC
:105300002168914201D1C9141FE0994A603A21688D
:10531000914202D14FF4001117E0944A2168914262
:1053200002D14FF4001110E0914A2168914202D15C
:105330004FF4001109E08D4A60322168914202D198
:105340004FF4001101E04FF00061084023E188496B
:105350001831206888425CD9844840380068844A03
:10536000903A2168914201D1202150E07F4A303AA1
:105370002168914201D1202149E07D4A303A2168DB
:10538000914201D1202142E0784A30322168914295
:1053900001D120213BE0764A783A2168914201D13F
:1053A000C91434E0714A183A2168914201D1C914F4
:1053B0002DE06F4A183A2168914201D1C91426E0C4
:1053C0006A4A48322168914201D1C9141FE0684AF3
:1053D000603A2168914202D14FF4001117E0634A0C
:1053E0002168914202D14FF4001110E0604A216817
:1053F000914202D14FF4001109E05C4A6032216809
:10540000914202D14FF4001101E04FF000610840D9
:10541000C1E057494839206888425CD95448A038CF
:105420004068534A903A2168914201D1202150E0CE
:105430004E4A303A2168914201D1202149E04C4A3C
:10544000303A2168914201D1202142E0474A30326E
:105450002168914201D120213BE0454A783A2168F8
:10546000914201D1C91434E0404A183A216891426E
:1054700001D1C9142DE03E4A183A2168914201D168
:10548000C91426E0394A48322168914201D1C91431
:105490001FE0374A603A2168914202D14FF400116F
:1054A00017E0324A2168914202D14FF4001110E016
:1054B0002F4A2168914202D14FF4001109E02B4A92
:1054C00060322168914202D14FF4001101E04FF0A7
:1054D000006108405FE02648A0380068244A903AFE
:1054E0002168914201D1202154E0204A303A2168BC
:1054F000914201D120214DE01D4A303A216891426C
:1055000001D1202146E0194A30322168914201D16F
:1055100020213FE0164A783A2168914201D1C9140E
:1055200038E0124A183A2168914201D1C91431E099
:105530000F4A183A2168914201D1C9142AE00B4A56
:1055400048322168914201D1C91423E0084A603AE7
:105550002168914202D14FF400111BE0034A2168F7
:10556000914207D14FF4001114E000004064024062
:10557000A0600240F94A2168914202D14FF4001123
:1055800008E0F74A2168914202D14FF4001101E08E
:105590004FF00061084088B32068006800F01000F8
:1055A00060B32068006800F4802040B3EC494839BB
:1055B000206888425DD9E94990392068884201D144
:1055C000202052E0E64990392068884201D120200D
:1055D0004BE0E24930392068884201D1202044E084
:1055E000DF4930392068884201D120203DE0DB4985
:1055F00078392068884203D1C01436E091E16BE12C
:10560000D74978392068884201D1C0142DE0D349A8
:1056100018392068884201D1C01426E0D0491839D1
:105620002068884201D1C0141FE0CC49603920684D
:10563000884202D14FF4001017E0C9496039206850
:10564000884202D14FF400100FE0C449206888421C
:1056500002D14FF4001008E0C1492068884202D10D
:105660004FF4001001E04FF00060BD49943908602C
:105670001CE1BA491831206888425BD9B749903992
:105680002068884201D1202050E0B5499039206837
:10569000884201D1202049E0B04930392068884251
:1056A00001D1202042E0AE4930392068884201D142
:1056B00020203BE0A94978392068884201D1C014F4
:1056C00034E0A74978392068884201D1C0142DE020
:1056D000A24918392068884201D1C01426E0A049A7
:1056E00018392068884201D1C0141FE09B496039F5
:1056F0002068884202D14FF4001017E098496039C1
:105700002068884202D14FF400100FE093492068CE
:10571000884202D14FF4001008E091492068884285
:1057200002D14FF4001001E04FF000608C4998392D
:105730000860BBE089494839206888425BD98749BD
:1057400090392068884201D1202050E08449903966
:105750002068884201D1202049E080493039206802
:10576000884201D1202042E07D49303920688842BA
:1057700001D120203BE0794978392068884201D165
:10578000C01434E0764978392068884201D1C014C9
:105790002DE0724918392068884201D1C01426E0F2
:1057A0006F4918392068884201D1C0141FE06B4945
:1057B00060392068884202D14FF4001017E0684930
:1057C00060392068884202D14FF400100FE063492D
:1057D0002068884202D14FF4001008E06049206838
:1057E000884202D14FF4001001E04FF000605B49A5
:1057F000A039C8605AE0594990392068884201D1DF
:10580000202050E0564990392068884201D120205C
:1058100049E0524930392068884201D1202042E0D5
:105820004F4930392068884201D120203BE04B4964
:1058300078392068884201D1C01434E04849783969
:105840002068884201D1C0142DE0444918392068ED
:10585000884201D1C01426E04149183920688842A5
:1058600001D1C0141FE03D4960392068884202D14F
:105870004FF4001017E03A4960392068884202D19D
:105880004FF400100FE035492068884202D14FF4F0
:10589000001008E032492068884202D14FF400101D
:1058A00001E04FF000602D49A03988602068006851
:1058B00000F4002028B9606C98B32046616C8847DA
:1058C000A7E12068006800F4002050B3E06B40B30B
:1058D0002046E16B88479CE12068006800F48070F6
:1058E00028B92068006820F01000216808601C4971
:1058F00048392068884260D9184990392068884220
:1059000001D1202055E0164990392068884201D104
:1059100020204EE0114930392068884202D12020F1
:1059200047E076E10E4930392068884201D12020D5
:105930003FE00A4978392068884201D1C01438E034
:10594000074978392068884201D1C01431E0034901
:1059500018392068884205D1C0142AE0A0600240AE
:10596000A0640240AB492068884201D1C01420E005
:10597000A9492068884202D14FF4001019E0A549D6
:1059800048392068884202D14FF4001011E0A24942
:1059900060312068884202D14FF4001009E09D492F
:1059A00018312068884202D14FF4001001E04FF016
:1059B000006098497C3908601CE19749783120687B
:1059C00088425BD9944930392068884201D120202F
:1059D00050E0904978392068884201D1202049E080
:1059E0008D4930312068884201D1202042E0894928
:1059F00018392068884201D120203BE086491839B7
:105A00002068884201D1C01434E08249603920689E
:105A1000884201D1C0142DE07F4948312068884276
:105A200001D1C01426E07B492068884201D1C0140E
:105A300020E079492068884202D14FF4001019E033
:105A4000744948392068884202D14FF4001011E0AF
:105A5000714960312068884202D14FF4001009E09A
:105A60006C4918312068884202D14FF4001001E0DF
:105A70004FF00060674980390860BBE06649183123
:105A8000206888425BD9644930392068884201D156
:105A9000202050E05F4978392068884201D12020D9
:105AA00049E05D4930312068884201D1202042E040
:105AB000584918392068884201D120203BE05649D6
:105AC00018392068884201D1C01434E05149603946
:105AD0002068884201D1C0142DE04F494831206828
