:020000040000FA
:10000000209F00209D010000E36F0000BD64000000
:10001000E16F0000AD2400006195000000000000C9
:10002000000000000000000000000000C971000096
:10003000372500000000000069700000CD7100004D
:10004000B7010000B7010000B7010000B7010000D0
:10005000B7010000B7010000392500003F2500006E
:10006000B7010000B7010000B7010000B7010000B0
:10007000B7010000B7010000B9240000B70100007B
:10008000B7010000B7010000B7010000B701000090
:10009000B7010000B7010000B7010000B701000080
:1000A000B7010000B7010000B7010000B701000070
:1000B000B7010000B7010000B1720000B7010000F5
:1000C000B7010000B7010000B7010000B701000050
:1000D000B7010000B7010000B7010000B701000040
:1000E000B7010000B7010000B7010000B701000030
:1000F000B7010000B7010000B7010000C5240000EF
:10010000B7010000B7010000B7010000B70100000F
:10011000B7010000B7010000B7010000B7010000FF
:10012000B7010000B7010000B7010000B7010000EF
:10013000B7010000B7010000B7010000B7010000DF
:10014000B7010000B7010000B70100000570000012
:10015000B7010000B7010000B7010000B7010000BF
:10016000B7010000B7010000B7010000B7010000AF
:10017000B7010000B7010000B70100000000000057
:10018000B7010000B7010000DFF80CD001F028FE35
:100190000048004741B20000209F002006488047E9
:1001A00006480047FEE7FEE7FEE7FEE7FEE7FEE75C
:1001B000FEE7FEE7FEE7FEE75D7200008901000052
:1001C0002DE9F04FDFF8041D0A680646DFF8000D40
:1001D000824208D0DFF8FC2CDFF8FC3C1360126888
:1001E000824234D1086006F110070020F860B86040
:1001F00078603860B86178613861002174682046A1
:1002000001F056FD24D04FF08740214601F046FB17
:1002100001F03BFD05468946204601F036FD0446C7
:100220003088884601F005FDDFF8B02CDFF8B03CDF
:1002300001F07FFC2246434601F062FB02460B467A
:100240002846494601F075FC01F000FD01E0FEE79B
:100250000020B8830021B468204601F029FD20D099
:100260003588280201F0D4FC82468B46204601F0F6
:100270000CFDDFF8682CDFF8683C01F0E8FB044671
:100280008846284601F0D5FC2246434601F038FB5B
:1002900002460B465046594601F04BFC01F0D6FC95
:1002A00000E00020F8834FF47A71308890FBF1F081
:1002B0003884BDE8F08F2DE9FE4FDFF8101CDFF821
:1002C000102C09688FB0914200D0FEE703F11001B5
:1002D0000091009A09695269009B119C0792009A4B
:1002E00092690292009A156852680692009ADB6839
:1002F0009268A4890194009CA48B0594009C059E9F
:10030000E48B0994C6F580760E960024019EC6EB18
:10031000C6060D96019E06EB46077E000C96019ED2
:1003200006EB86060B96019E06EB46060A96009E95
:10033000368C002E00F016810678DFF8907BDFF80F
:100340008CEBDFF8888BDFF8849BDFF880ABF61945
:10035000069F96F804C267440897DFF870CB96F8BA
:10036000047105EB47073579019E365C664496F8C3
:1003700004C267440497DFF854CB96F8047105EB88
:1003800047053779019E10F81660B4449CF8046262
:10039000AE199CF8045107EB45079CF80450DDF8B2
:1003A00028C01CF800C0E6449EF804C267449EF8CA
:1003B00004C105EB4C0C9EF80450DDF804E010F885
:1003C0002EE0F04498F804E2E64498F804C105EB06
:1003D0004C0598F804C0DDF82C8018F80080C14462
:1003E00099F80482A84499F804510CEB450599F852
:1003F00004C0DDF8309019F80090CA449AF80492CD
:100400009AF804B0A9449AF80451DFF8C0AA0CEB9A
:100410004505DDF834C01CF800C0E244CDF80CA05E
:100420009AF804C205EB0C0A039D95F80451DDF817
:1004300020C00BEB4505CCEBCC0B03EB8B03DDF8BD
:1004400010C006954FF0150B0BFB0C33C6EB061CCA
:10045000634407EB870C03EB4C030EEB4E0C03EBF2
:100460004C0308EB480C634409EB030C089B039D09
:100470002D7903EBC30302EB8302049B4FF02A0B9D
:100480000BFB03222E2313FB06220EEB070303EBC9
:10049000430302EB03122E2313FB08221BFB09224A
:1004A0000AEBCA0302EB8303049A06EB4606B21872
:1004B00007EB470602EB46020EEB8E0602EB460206
:1004C000C8EB0816B218152616FB0922CAEBCA0695
:1004D00002EB8602099FACF5003667B1DDF81CC05F
:1004E000099F07967118A1EB0C017943CF1101EB1D
:1004F000176109120E46059F6FB1DDF814E00E9FDB
:10050000DDF808C006FB0EF60CFB0766F71106EBDC
:10051000176636120296BDF840707E43012EACBFBE
:100520000836083EF71006EB17763611DFF8647EC2
:10053000BE42B8BF3E4605DB47F6BD77BE42A8BF08
:1005400047F6BC76119FDDF83CC0FF8967432CF865
:100550001760641C019E00EBC600009E368CB442FE
:10056000FFF6EAAE009805600098069C446000988B
:1005700082600098C360009801610098079941610A
:100580000098029981610098008C12B0BDE8F08F4C
:100590002DE9FE4FDFF83419DFF834390A6894B0DA
:1005A0009A4200D0FEE7169A169D10320092009BE8
:1005B00012695B69009C0993009B9B690293009BF5
:1005C000D3F800905B680893009BE4689B68AD8952
:1005D0000195009DAD8B019E079506EB8607009D5A
:1005E000ED8B0C957E0013960025079EC6F5807650
:1005F0001296019E06EBC6061196019EC6EBC60634
:100600001096019E06EB46077E000F96019E06EBB4
:1006100086060E96019E06EB46060D96009E368CCB
:10062000002E00F04F810678089F761896F804C2D5
:100630006744DDF804C00B971CF800C096F80471FD
:1006400036790CEB010E09EB47079EF804C26744AC
:100650000697DDF804C09EF8047110F81CC006EB84
:1006600047069EF804708C449CF804E276449CF89B
:1006700004E107EB4E089CF80470DDF834C01CF868
:1006800000C00CEB010E9EF804C2E044CDF81480CB
:100690009EF804C107EB4C0C9EF80470DDF804E0F2
:1006A00010F82EE08E449EF80482E044CDF81080CD
:1006B0009EF804C107EB4C079EF804C0DDF838E053
:1006C0001EF800E08E449EF8048247449EF80481A0
:1006D0009EF804E00CEB480CDDF83C8018F8008034
:1006E000884498F80492CC4498F8049198F80480CF
:1006F0000EEB490EDDF8409019F80090894499F806
:1007000004A2D64499F804A199F8049008EB4A0889
:10071000DDF804A010F83AA08A449AF804B2D8444C
:100720009AF804B19AF804A009EB4B09DDF844B03B
:100730001BF800B08B44CDF80CB09BF804B2CB444E
:10074000DDF80C90CDF828B04FF02D0B99F80491FE
:100750000AEB490ACDF820A0DDF82CA0DDF80C90BA
:1007600099F804900BFB0A44DDF818A00AEBCA0BB9
:1007700004EB8B04C6EBC60A04EB8A04DDF814A074
:100780004FF0150B0BFB0A44DDF810A0CAEB0A1A58
:10079000544407EB870A04EB4A040CEB4C0A04EBC5
:1007A0004A040EEB4E0A544408EB040A0B9C4FF02B
:1007B000370B0BFB0433069CC4EB8414E31845246D
:1007C00014FB0633059C4FF0490B0BFB0433049CD0
:1007D0003C194FF04B0B0BFB0433492414FB0C3337
:1007E000452414FB0E33C8EB8814E3180A9C4FF021
:1007F000370B0BFB0434069B06EB4606F318059EED
:1008000006EB460603EB4603049E06EB860603EB67
:100810004603C7EB0716F318152616FB0C33CEEB71
:10082000CE0603EB860308EBC80603EB86030A9E9D
:100830002D2707FB06330C9FAAF57A3667B1DDF842
:1008400024C00C9F0996B218A2EB0C027A43D71170
:1008500002EB176212121646079F6FB1DDF81CE01B
:10086000129FDDF808C006FB0EF60CFB0766F711B9
:1008700006EB176636120296BDF854707E43012EC1
:10088000ACBF1036103E371106EBD7667611DFF895
:10089000047BBE42B8BF3E4605DB47F6BD77BE428D
:1008A000A8BF47F6BC76169FDDF850C0FF896F439E
:1008B0002CF817606D1C139E3018009E368CB542C4
:1008C000FFF6B1AE0098C0F800900098089941601A
:1008D000009883600098C4600098026100980999AC
:1008E00041610098029981610098008C17B0BDE8C1
:1008F000F08F2DE9F44FDFF8D425DFF8D4451268E6
:100900008BB0A24200D0FEE703F110020092009BE0
:1009100012695B69009C009E0593009B9B69019393
:10092000009B1D685B680493009BE4689B68B68B22
:100930000796009EF68B0A9609911021079EC6F530
:10094000807608960678DFF88475DFF880E5DFF8B2
:100950007C85DFF87895DFF874A5F619049F96F882
:1009600004C067440697DFF864C596F8047196F8EA
:10097000046205EB4705077A674497F804C06544AD
:100980000395DFF848C597F8045197F8047206EB11
:100990004505067CB4449CF80460AE199CF80451EB
:1009A0009CF804C207EB4505077EBE449EF8047020
:1009B000EF199EF804510CEB450C9EF8045290F888
:1009C00020E0F04498F804E0E64498F804C105EB10
:1009D0004C0C98F8045290F82880C14499F804808F
:1009E000E04499F804C105EB4C0599F804C290F86D
:1009F0003090CA449AF804909AF804B2A9449AF83C
:100A00000451DFF8C8A40CEB450590F838C0E24467
:100A1000CDF808A09AF804C005EB0C0A029D95F8E1
:100A20000451DDF818C00BEB4505CCEBCC0B04EB07
:100A30008B04DDF80CC004954FF0150B0BFB0C4438
:100A4000C6EB061C644407EB870C04EB4C040EEB6E
:100A50004E0C04EB4C0408EB480C644409EB040C0A
:100A6000069C029D95F8045204EBC40403EB840336
:100A7000039C4FF02A0B0BFB04332E2414FB06338C
:100A80000EEB070404EB440403EB04132E2414FBC5
:100A900008331BFB09330AEBCA0403EB8404039BF2
:100AA00006EB4606F31807EB470603EB46030EEB8F
:100AB0008E0603EB4603C8EB0816F318152616FB43
:100AC0000933CAEBCA0603EB8603ACF50036DDF842
:100AD00014C00A9F0596B218A2EB0C027A43D711F4
:100AE00002EB1762DDF81CC0089E019F121202FB88
:100AF0000CFC07FB06C6F71106EB176636120196CB
:100B0000BDF82C707E43012EACBF0836083EF710AE
:100B100006EB17763611DFF87C78BE42B8BF3E464A
:100B200005DB47F6BD77BE42A8BF47F6BC76099FF6
:100B30000C370997403027F80C6D491E7FF402AF3F
:100B400000980560009804994160009883600098BF
:100B5000C46000980261009805994161009801996C
:100B6000816110200CB0BDE8F08F2DE9FE4FD74910
:100B7000D74B0A6894B09A4200D0FEE7169A169DA9
:100B800010320092009B12695B69009C0993009BE4
:100B90009B690293009BD3F800905B680893009BCD
:100BA000E4689B68AD890195009DAD8B019E07951A
:100BB00006EB8607009DED8B0C957E0013960025B5
:100BC000079EC6F580761296019E06EBC606119624
:100BD000019EC6EBC6061096019E06EB46077E00F8
:100BE0000F96019E06EB86060E96019E06EB4606C4
:100BF0000D96009E368C002E00F050810678089FDE
:100C0000761896F804C06744DDF804C00B971CF80A
:100C100000C096F8047196F804620CEB010E09EB23
:100C200047079EF804C067440697DDF804C09EF8A5
:100C3000047110F81CC006EB47069EF804728C4441
:100C40009CF804E076449CF804E107EB4E089CF81D
:100C50000472DDF834C01CF800C00CEB010E9EF8E5
:100C600004C0E044CDF814809EF804C107EB4C0C9E
:100C70009EF80472DDF804E010F82EE08E449EF831
:100C80000480E044CDF810809EF804C107EB4C07C7
:100C90009EF804C2DDF838E01EF800E08E449EF8AD
:100CA000048047449EF804819EF804E20CEB480C53
:100CB000DDF83C8018F80080884498F80490CC4413
:100CC00098F8049198F804820EEB490EDDF84090F4
:100CD00019F80090894499F804A0D64499F804A121
:100CE00099F8049208EB4A08DDF804A010F83AA03D
:100CF0008A449AF804B0D8449AF804B19AF804A245
:100D000009EB4B09DDF844B01BF800B08B44CDF87B
:100D10000CB09BF804B0CB44DDF80C90CDF828B0B3
:100D20004FF02D0B99F804910AEB490ACDF820A059
:100D3000DDF82CA0DDF80C9099F804920BFB0A4426
:100D4000DDF818A00AEBCA0B04EB8B04C6EBC60A4D
:100D500004EB8A04DDF814A04FF0150B0BFB0A44DA
:100D6000DDF810A0CAEB0A1A544407EB870A04EB1B
:100D70004A040CEB4C0A04EB4A040EEB4E0A5444B2
:100D800008EB040A0B9C4FF0370B0BFB0433069C5B
:100D9000C4EB8414E318452414FB0633059C4FF080
:100DA000490B0BFB0433049C3C194FF04B0B0BFB22
:100DB0000433492414FB0C33452414FB0E33C8EBD5
:100DC0008814E3180A9C4FF0370B0BFB0434069B86
:100DD00006EB4606F318059E06EB460603EB4603B4
:100DE000049E06EB860603EB4603C7EB0716F318D3
:100DF000152616FB0C33CEEBCE0603EB860308EB71
:100E0000C80603EB86030A9E2D2707FB06330C9FBB
:100E1000AAF57A3667B1DDF824C00C9F0996B2189E
:100E2000A2EB0C027A43D71102EB1762121216469C
:100E3000079F6FB1DDF81CE0129FDDF808C006FBCC
:100E40000EF60CFB0766F71106EB176636120296D4
:100E5000BDF854707E43012EACBF1036103E3711E2
:100E600006EBD7667611DFF82C75BE42B8BF3E465A
:100E700005DB47F6BD77BE42A8BF47F6BC76169F96
:100E8000DDF850C0FF896F432CF817606D1C139E6E
:100E90003018009E368CB542FFF6B0AE0098C0F810
:100EA0000090009808994160009883600098C460A1
:100EB0000098026100980999416100980299816146
:100EC0000098008C17B0BDE8F08F0000580100209A
:100ED000CDB5E8B500300240C2A507F41F85EB513F
:100EE000B81E19402DE9FE4FDFF85C19DFF85C39B8
:100EF0000A68A1B09A4200D0FEE7239A103200920D
:100F00004FF0000B009B12695B690F93009B9B697C
:100F10000393009B1B680E93009B5B680D93009CE2
:100F2000009BD4F80CA0239C9B68A4890194009C8E
:100F3000A48B0C94009CE48B1294019E36012096A5
:100F40000C9EC6F580761F96019EC6EB06161E9671
:100F5000019EC6EBC6077E001D960D27019E7E43AF
:100F60001C96019E06EB4607BE001B960B27019EB2
:100F70007E431A96019E06EB86077E001996019E17
:100F800006EBC6061896019EC6EBC6061796019E8E
:100F900006EB46077E001696019E06EB8606159622
:100FA000019E06EB46061496009E368C002E00F03D
:100FB000D98106780D9FDDF804C0DDF8048076182D
:100FC00034792744119796F804410E9F96F80462ED
:100FD00007EB4407019C245C0C4425792F440B97B4
:100FE00094F8047110F81CC0149D10F8288015F8AE
:100FF00000E006EB470694F804728C448E449CF89B
:1010000004409EF8045026449CF8044107EB440732
:101010002F449CF804429EF80451884404EB450494
:1010200098F804909EF804524C440A9498F80441AD
:1010300005EB440C159D98F8044215F8008088448F
:1010400098F80450AC4498F8045198F8048204EBE2
:101050004505169C14F80090894499F804402C44E6
:10106000099499F8044108EB4405179C99F8048207
:1010700014F80090894499F804402C44089499F895
:10108000044108EB440599F80482DDF8049010F857
:101090003990894499F804402C44079499F8044104
:1010A00008EB4405189C99F8048214F800908944D0
:1010B00099F804402C44069499F8044108EB44053F
:1010C000199C99F8048214F80090894499F8044016
:1010D0002C44059499F8044108EB44051A9C99F8AE
:1010E000048214F80090894499F804402C44049434
:1010F00099F8044199F8045208EB440E1B9C14F82B
:101100000090894499F80440A64499F8044199F85C
:10111000049205EB44081C9C245C64182579A844BF
:1011200094F8045194F8044209EB45091D9D2D5C87
:101130006D1802952D79A944029D95F8045104EB90
:101140004504029D95F8045213951E9D2D5C6D1863
:1011500002952D7965191095029D139C95F80451FF
:1011600004EB45050D95029C94F804520E95119CD4
:10117000C4EB04150AEBC50A0B9C692505FB04AA00
:101180005B2414FB06AA4E2414FB07AA0A9C04EB5A
:1011900044150AEB450A372414FB0CAA099C2D259B
:1011A00005FB04AA089C04EBC405079C0AEB850A0E
:1011B000C4EBC4050AEB850A069C152505FB04AAA9
:1011C000059CC4EB0414A244049C04EB84050AEBC4
:1011D00045050EEB4E0405EB440A08EB4804119D4F
:1011E000A24409EB0A0405EB051503EBC503DDF882
:1011F0002CA0962505FB0A33A22515FB0633AC254A
:1012000015FB0733DDF828A0B42505FB0A33BA2502
:1012100015FB0C33DDF824A0BE2505FB0A33DDF8F1
:1012200020A0079D554405EB450503EB8513DDF82C
:1012300018A0BE2505FB0A33DDF814A0BA2505FB6E
:101240000A33DDF810A0B42505FB0A33AC2515FBE5
:101250000E33A22515FB08339625DDF840A015FBBB
:1012600009330AEB0A1503EBC50A0B9B06EB46068E
:10127000F31807EB470603EB46030A9E06EB8607C7
:1012800003EB4703CCEB0C16F318099E152707FB5D
:101290000633089EC6EBC607079E03EB870306EBE3
:1012A000C60703EB8703069E2D2707FB0633059E23
:1012B000372707FB0633049E06EB461703EB47036D
:1012C0004E2616FB0E335B2616FB0833692616FBEB
:1012D0000933109EC6EB061703EBC703129FA4F554
:1012E000801657B10F9C129F0F96B218121B7A43AB
:1012F000D71102EB1762121216460C9F67B1DDF888
:1013000030E01F9F039C06FB0EF604FB0766F711F7
:1013100006EB176636120396BDF888707E43012EE1
:10132000ACBF8036803EF71106EB17663612194FB8
:10133000BE42B8BF3E4605DB47F6BD77BE42A8BFFA
:1013400047F6BC76239F219CFF8907FB0BF724F807
:1013500017600BF1010B209E3018009E368CB345B0
:10136000FFF627AE00980E99016000980D99416034
:10137000009883600098C0F80CA000980261009863
:101380000F9941610098039981610098008C24B005
:10139000BDE8F08F4480FFFF2DE9FE4FDFF8A81471
:1013A000DFF8A8340A68A1B09A4200D0FEE7239A79
:1013B000103200924FF0000B009B12695B690F9393
:1013C000009B9B690393009B1B680E93009B5B68CB
:1013D0000D93009C009BD4F80CA0239C9B68A489CF
:1013E0000194009CA48B0C94009CE48B1294019EAD
:1013F000360120960C9EC6F580761F96019EC6EBA0
:1014000006161E96019EC6EBC6077E001D960D278A
:10141000019E7E431C96019E06EB4607BE001B966E
:101420000B27019E7E431A96019E06EB86077E00DF
:101430001996019E06EBC6061896019EC6EBC606D7
:101440001796019E06EB46077E001696019E06EB58
:1014500086061596019E06EB46061496009E368C6F
:10146000002E00F0D98106780D9FDDF804C0DDF86C
:101470000480761896F804422744119796F80441A0
:101480000E9F367907EB4407019C245C0C4494F8CA
:1014900004522F440B9794F8047110F81CC0149D4B
:1014A00010F8288015F800E006EB470627798C44F1
:1014B0008E449CF804429EF8045226449CF8044151
:1014C00007EB44072F449CF804409EF804518844DD
:1014D00004EB450498F804929EF804504C440A9496
:1014E00098F8044105EB440C159D98F8044015F854
:1014F0000080884498F80452AC4498F8045198F855
:10150000048004EB4505169C14F80090894499F872
:1015100004422C44099499F8044108EB4405179CB3
:1015200099F8048014F80090894499F804422C44F6
:10153000089499F8044108EB440599F80480DDF813
:10154000049010F83990894499F804422C44079487
:1015500099F8044108EB4405189C99F8048014F8A4
:101560000090894499F804422C44069499F8044167
:1015700008EB4405199C99F8048014F800908944FC
:1015800099F804422C44059499F8044108EB440569
:101590001A9C99F8048014F80090894499F8044240
:1015A0002C44049499F8044199F8045008EB440E33
:1015B0001B9C14F80090894499F80442A64499F8B9
:1015C000044199F8049005EB44081C9C245C6418C1
:1015D00094F80452A84494F80451247909EB45097D
:1015E0001D9D2D5C6D18029595F80452A944029D2D
:1015F00095F8045104EB4504029D2D7913951E9D29
:101600002D5C6D18029595F8045265191095029D90
:10161000139C95F8045104EB45050D95029C257922
:101620000E95119CC4EB04150AEBC50A0B9C6925A9
:1016300005FB04AA5B2414FB06AA4E2414FB07AA8C
:101640000A9C04EB44150AEB450A372414FB0CAA48
:10165000099C2D2505FB04AA089C04EBC405079CE6
:101660000AEB850AC4EBC4050AEB850A069C15251E
:1016700005FB04AA059CC4EB0414A244049C04EBDF
:1016800084050AEB45050EEB4E0405EB440A08EB16
:101690004804119DA24409EB0A0405EB051503EB70
:1016A000C503DDF82CA0962505FB0A33A22515FB02
:1016B0000633AC2515FB0733DDF828A0B42505FB60
:1016C0000A33BA2515FB0C33DDF824A0BE2505FB33
:1016D0000A33DDF820A0079D554405EB450503EBD3
:1016E0008513DDF818A0BE2505FB0A33DDF814A02C
:1016F000BA2505FB0A33DDF810A0B42505FB0A3333
:10170000AC2515FB0E33A22515FB08339625DDF815
:1017100040A015FB09330AEB0A1503EBC50A0B9B26
:1017200006EB4606F31807EB470603EB46030A9E53
:1017300006EB860703EB4703CCEB0C16F318099E68
:10174000152707FB0633089EC6EBC607079E03EB6B
:10175000870306EBC60703EB8703069E2D2707FBCF
:101760000633059E372707FB0633049E06EB461714
:1017700003EB47034E2616FB0E335B2616FB08339E
:10178000692616FB0933109EC6EB061703EBC70349
:10179000129FA4F5801657B10F9C129F0F96B21896
:1017A000121B7A43D71102EB1762121216460C9FD6
:1017B00067B1DDF830E01F9F039C06FB0EF604FBCB
:1017C0000766F71106EB176636120396BDF88870A8
:1017D0007E43012EACBF8036803EF71106EB1766C4
:1017E00036121B4FBE42B8BF3E4605DB47F6BD77FB
:1017F000BE42A8BF47F6BC76239F219CFF8907FB0A
:101800000BF724F817600BF1010B209E3018009E97
:10181000368CB345FFF627AE00980E99016000980C
:101820000D994160009883600098C0F80CA0009862
:10183000026100980F9941610098039981610098B5
:10184000008C24B0BDE8F08F58010020CDB5E8B57C
:101850004480FFFF40EA01039B0703D009E008C969
:10186000121F08C0042AFAD203E011F8013B00F865
:10187000013B521EF9D27047D2B201E000F8012BB1
:10188000491EFBD270470022F6E710B513460A4600
:1018900004461946FFF7F0FF204610BD80EA01021A
:1018A00010B502F00043400022D04A001FD0010EC4
:1018B00001EB1261C0F35600C2F3560240F400007F
:1018C00042F40002A0FB022000047F39140400D07F
:1018D000401C50EA124001D44000491EC2B20C061E
:1018E00004EBD010401C4008802A02D003E0002006
:1018F00010BD20F00100002900DA0020184310BDBF
:101900002DE9FE4F804681EA0300C00F0C4600908F
:1019100021F0004123F00045B8EB0200A94105D2B7
:101920004046214690461C460B46024623F00040A6
:10193000104347D0270DC7F30A00C3F30A510290A2
:10194000401A019040286BDAC3F3130040F4801B67
:101950000098924620B10023D2EB030A63EB0B0BF5
:1019600001985946C0F14002504600F0ABF90646D6
:101970000D4650465946019A00F0C3F910EB080095
:101980006141002487EA115284EAE7731A4340D088
:10199000009A62B3019A012A4FEA075215DC001B34
:1019A00061EB02014FF0004202EA0752CDE900422A
:1019B000001C41F5801132462B4600F0C3F903B0FC
:1019C000BDE8F08F40462146F9E7001B61EB0201BC
:1019D000001C41F5801300185B412018A2F5001788
:1019E00047EB030140EAD570B6196D4111E06D086F
:1019F0004FEA360645EAC0754FEA0752001B61EB15
:101A00000201001C41F5801149084FEA300000191D
:101A1000514132462B4603B0BDE8F04F00F083B988
:101A20000098012240000023D0EB020263EBE07338
:101A3000009821464FEAE074B8EB000061EB040126
:101A4000E9E783F000435BE781F0004158E72DE9C7
:101A5000FE4F81EA030404F0004421F000410094A9
:101A60004FF0000B23F0004350EA01045ED052EA2D
:101A700003045BD0C3F30A54C1F30A552C44A4F207
:101A8000F3340194A0FB0254C1F3130141F480111B
:101A9000C3F3130343F4801301FB024400FB034E22
:101AA000840A970A44EA815447EA8357A4FB0768EB
:101AB00002958D0A05FB07854FEA932C04FB0C5415
:101AC0002705029D4FEA065847EA1637B5EB080589
:101AD0006EEB070C870E920E47EA811742EA8312DB
:101AE000A7FB0201B6EB0B0164EB00042B0D43EAEC
:101AF0000C335E1844EB1C50DA465146E7FB0201FA
:101B0000C5F313044FEA0B3343EA14534FEA04328C
:101B1000019C43EA0603A4F10C040294009CCDE965
:101B200000B400F00FF903B0BDE8F08F00200146CB
:101B3000F9E72DE9F04D81EA030404F0004B21F0B0
:101B4000004514464FF0000A23F0004150EA050218
:101B500020D054EA01021DD0C5F30A570246C5F34E
:101B60001303C1F31300C1F30A5640F4801543F484
:101B70008013A7EB0608101BD64608F2FD3873EB5E
:101B8000050002D308F1010801E092185B41B8F1A9
:101B9000000F03DA00200146BDE8F08D00204FF46D
:101BA0008011064684460EE0171B73EB050705D32C
:101BB000121B63EB050306434CEA010C49084FEA8C
:101BC000300092185B4150EA0107EDD152EA030060
:101BD00012D082EA040083EA0501084305D0101BF5
:101BE000AB4106D20122002306E000224FF0004361
:101BF00002E06FF0010253101AEB06004CEB0851A3
:101C000010EB0A0041EB0B01BDE8F04D00F08BB882
:101C10000EB5C10F80EAE0700844CA07002140F207
:101C200033438DE80E000A460B4600F08BF803B0F4
:101C300000BD0EB540F2334102910021CDE9001103
:101C40000A460B4600F07EF803B000BD70B5C1F344
:101C50000A5201F000450024C1F3130140F2FF33A2
:101C600041F480119A4201DA002070BD40F2334302
:101C70009A42A2F2334203DC524200F032F800E012
:101C800090402C43F1D0404270BD00F0004230F053
:101C900000400AD0C10D01F56071C0F3160042EAA0
:101CA0000151C208400711437047002001467047A8
:101CB000002801DBC0F10040002901DBC1F1004137
:101CC00081427047202A04DB203A00FA02F100200A
:101CD00070479140C2F1200320FA03F3194390406A
:101CE0007047202A04DB203A21FA02F000217047D5
:101CF00021FA02F3D040C2F1200291400843194674
:101D00007047202A06DBCB17203A41FA02F043EA5B
:101D1000E07306E041FA02F3D040C2F120029140A4
:101D200008431946704710B5141E73F1000408DA11
:101D3000401C41F1000192185B411A4301D120F08F
:101D4000010010BD2DE9F04D92469B4611B1B1FA4C
:101D500081F202E0B0FA80F220329046FFF7B2FF43
:101D600004460F4640EA0A0041EA0B0153465A4630
:101D7000084313D0114653EA010019D0C8F14002BC
:101D80005046FFF7AEFF05460E46504659464246BE
:101D9000FFF798FF084305D0012004E020463946AC
:101DA000BDE8F08D0020054346EAE0762C4337433A
:101DB0000A986305E40AA0EB08000022FD0A44EA41
:101DC00047540A3002D500200146E9E70105101901
:101DD0006941DDE9084500196941BDE8F04DA2E718
:101DE000064C074D06E0E06840F0010394E8070068
:101DF00098471034AC42F6D3FEF7CAF968B7000032
:101E000088B7000070B58C1810F8015B15F0070357
:101E100001D110F8013B2A1106D110F8012B03E083
:101E200010F8016B01F8016B5B1EF9D12B0705D48B
:101E30000023521E0DD401F8013BFAE710F8013BD4
:101E4000CB1A921C03E013F8015B01F8015B521EF0
:101E5000F9D5A142D8D3002070BD00000D4800B5CF
:101E6000016885B041F01001016002200A49039029
:101E7000CDE90001002002906946084802F0F4F81C
:101E800000220F21072003F0F3F8072003F0E4F805
:101E900005B000BD303802400000111000100240B3
:101EA0000D4810B5016886B041F0100101600820AE
:101EB000009001200021CDE90101084C0390694602
:101EC000204602F0D1F801220821204602F0B2F9A2
:101ED00005F01AF906B010BD30380240001002407B
:101EE0002DE9F04114460546012A02D941F0C00609
:101EF00001E041F080060D4F00220821384602F033
:101F000099F9304605F044F906E0002005F040F963
:101F1000641E05F8010BA4B2002CF6D13846BDE8CA
:101F2000F0410122082102F085B9000000100240B2
:101F30002DE9F041144605460E46012A01D941F02B
:101F400040060C4F00220821384602F073F9304653
:101F500005F01EF905E0287805F01AF9641EA4B210
:101F60006D1C002CF7D13846BDE8F0410122082154
:101F700002F060B900100240134810B5016886B045
:101F800041F0080101601020009001200190022022
:101F9000039000200D4C02906946204602F064F840
:101FA00004F0DAFB00221021204602F043F905205C
:101FB00002F01CF801221021204602F03BF9052016
:101FC00002F014F806B010BD30380240000C024098
:101FD0001FB5044600200B4B8DF80C000A465B68C9
:101FE000012103A88DE80B000B462146064802F0AC
:101FF000C1FB10B1204604F0A5FB9DF80C0004B015
:1020000010BD0000DC000020705D00201FB51346ED
:102010008DF80C30094B04460A465B68012103A881
:102020008DE80B000B462146054802F07FFC002896
:1020300002D0204604F086FB1FBD0000DC0000201B
:10204000705D002003480068C069002800D0004788
:1020500070470000F800002003480068C0680028AE
:1020600000D0004770470000F800002070B50E4D0A
:102070000124686880470D4E3B2805D00C4D6868E8
:1020800080473F2808D00CE0356029684720884702
:1020900031682D20096A02E0356029686720884789
:1020A0000024204670BD000084000020F8000020BD
:1020B000B00000200349002009684968002900D0C9
:1020C00008477047F800002070470000124910B51B
:1020D00001F1400000F048F8114C1048A16840227E
:1020E00000EB81100C49FFF7B5FB04F1140100204F
:1020F0000860A26801213F2A03D0A2687F2A06D087
:1021000001E0E1602061A068401CA06010BDE160BA
:102110004FF400612161F8E7B05B0020B03B002084
:10212000380000207FB504461546684602F0D2FF0D
:102130004FF001006107009011D04FF491700190B1
:1021400002200290684602F0EDFF2946204604F086
:102150005FFF204604F05CFB04B0002070BDC0208F
:1021600001900620EDE7000010B5A0B00C4600215C
:102170004FEA0D0230F811305BBA22F81130491CD9
:102180004029F7D310460A4A084B21461288FEF729
:1021900092F8002004EB800234F82010401C51809B
:1021A0001028F7D320B0002010BD0000C85E00202A
:1021B000FC0000208AB210B50146024802F03EFE43
:1021C000002010BD885E002010B5024802F0D0FC4F
:1021D000002010BD885E0020124910B501F1C0003A
:1021E000FFF7C2FF114C1048A168402200EB81109C
:1021F0000C49FFF72FFB04F1140100200860A268CE
:1022000001213F2A03D0A2687F2A06D001E0E160C5
:102210002061A068401CA06010BDE1604FF4006127
:102220002161F8E7B05B0020B03B002038000020BF
:102230000A460146014802F06DBE0000485E0020DB
:10224000FEE70000014901200870704724000020CB
:102250002DE9FF41804615460F460126684602F0EB
:1022600039FF30466907009010D04FF4917001900B
:1022700002200290684602F055FF0E4C94206168DF
:102280008847C0F3C4001C2804D00FE0C020019090
:102290000620EEE7084800262B46446024683A46AC
:1022A00041469420A047284604F03CFB04B0304649
:1022B000BDE8F08154000020FC000020064810B565
:1022C0004068C1689420884708B1012010BD0348C8
:1022D00002F09AFB002010BDFC000020485E0020A8
:1022E00070B505460C480C468AB24068294683689A
:1022F0009420984708B1012070BDB4F5003F01D289
:10230000600801E04FF6FF7082B22946034802F0F0
:1023100001FE002070BD0000FC000020485E00208F
:10232000064810B5406801699420884708B101202B
:1023300010BD034802F0BEFB002010BDFC000020D1
:10234000485E002010B504460B4802F011FC0B4813
:102350002146406842699420904708B1012010BD91
:10236000012C07D1012001F041FE00221021044878
:1023700001F060FF002010BD485E0020FC0000203E
:10238000000C024003490220087081020248FFF756
:102390004FBF0000240000201413002070B50F4927
:1023A000044686B0086840F0080008600C4E0D4DE9
:1023B000694636F814000090012001900290022036
:1023C000039055F8240001F04FFE36F8141055F82C
:1023D0002400002201F02EFF06B070BD303802400C
:1023E0009EB60000E80000200449054A31F81010AC
:1023F00052F82000002201F01DBF00009EB6000030
:10240000E80000200449054A31F8101052F8200075
:10241000012201F00FBF00009EB60000E80000207E
:102420000349044A31F8101052F8200001F0FEBEB2
:102430009EB60000E800002030B50446174885B07D
:10244000026842F0010202600020154D154B022285
:10245000C1B1012914D135F81410CDE90202124896
:10246000CDE9001053F82400694601F0FDFDAD1ED2
:10247000002228570F2102F0FBFD285702F0ECFD47
:1024800005B030BD35F81410CDE90010CDE90202D9
:1024900053F82400694601F0E7FDF1E730380240C7
:1024A0009CB60000DC00002000001110FEE710B513
:1024B000FFF7ACFD002010BD0148806B00F072BD3D
:1024C000885E00200148406B00F06CBD485E002033
:1024D00010B5046863608368402B036803D099607B
:1024E0000068C26010BD9A600068C16010BD000045
:1024F00010B500224FEA020100EB8203521CC3F820
:102500004C130F2AF8D300224FF400738418521C86
:1025100021779A42FAD30170417001228270C0F88B
:102520008813027640238371417680F81C1280F86C
:102530001D22002010BD7047012001F089BD02203E
:1025400001F086BD0120FFF75DFFFEE710B50C4AE4
:1025500004460120137A012B11D8107A002313545A
:10256000107A02EB80004460107A441C1472303000
:1025700008703A2048702F208870CB70184610BD24
:10258000145F00202DE9F04104460068016821F045
:102590000101016001F054FE054600264FF47A77F0
:1025A00010E000BF01F04CFE401BB8420AD954F8BD
:1025B0004C0F40F0200044F818090320267060708A
:1025C000BDE8F08120680068C007EBD104F8346FE3
:1025D000012060700020F3E72DE9F04FF0B390F890
:1025E000351002294BD001680A6822F001020A6006
:1025F00002680021116002685160026891600268FF
:10260000D16002681161026821215161DFF808E49C
:10261000DFF8FC83DFF8FCC3DFF8FCB34FF480790C
:102620004FF4802AAEF1600EFB4AF94BFA4CF84D9C
:10263000F94EF74F0168A83A483B483C1835903EA0
:10264000303F41453DD9914238D0994236D0A142E0
:1026500034D0A94232D0B1420FD000E00FE0B942ED
:102660000BD0DFF8B4C3ACF1300C614505D0DFF816
:10267000A0C30CF1300C614504D1CC461EE0012012
:10268000BDE8F08FDFF890C3ACF1780C614511D054
:10269000DFF87CC3ACF1180C61450BD0DFF878C3D0
:1026A000ACF1180C614505D0DFF864C30CF1480C9F
:1026B000614501D1D44601E04FF0807CD4494C39CA
:1026C00039E059453AD9914233D0994231D0A142AB
:1026D0002FD0A9422DD0B1420DD0B9420BD0DFF896
:1026E00038C3ACF1300C614505D0DFF824C30CF1E0
:1026F000300C614501D1CC461BE0DFF81CC3ACF1C6
:10270000780C614511D0DFF808C3ACF1180C6145B5
:102710000BD0DFF804C3ACF1180C614505D0DFF82D
:10272000F0C20CF1480C614501D1D44601E04FF0F4
:10273000807CB7495039C1F800C076E071453AD97C
:10274000914233D0994231D0A1422FD0A9422DD00D
:10275000B1420DD0B9420BD0DFF8BCC2ACF1300CA5
:10276000614505D0DFF8A8C20CF1300C614501D1FC
:10277000CC461BE0DFF8A0C2ACF1780C614511D06B
:10278000DFF88CC2ACF1180C61450BD0DFF888C2C1
:10279000ACF1180C614505D0DFF874C20CF1480C9F
:1027A000614501D1D44601E04FF0807C9A49B839A7
:1027B000C1F80CC039E0914233D0994231D0A142E6
:1027C0002FD0A9422DD0B1420DD0B9420BD0DFF8A5
:1027D00048C2ACF1300C614505D0DFF834C20CF1D1
:1027E000300C614501D1CC461BE0DFF82CC2ACF1C6
:1027F000780C614511D0DFF818C2ACF1180C6145B6
:102800000BD0DFF814C2ACF1180C614505D0DFF82D
:1028100000C20CF1480C614501D1D44601E04FF0F3
:10282000807C7D49B839C1F808C0DFF8E4810168CF
:102830004FF4006C4FF400194FF0006A414538D94D
:10284000914205D0994203D0A14201D0A94202D1C0
:102850004FF0200C2AE0B14228D0B94226D0DFF850
:10286000B881A8F13008414520D0DFF8A48108F1F3
:10287000300841451AD0DFF8A0C1ACF1780C6145B1
:1028800011D0DFF88CC1ACF1180C61450BD0DFF82A
:1028900088C1ACF1180C614505D0DFF874C10CF1AA
:1028A000480C614501D1CC4600E0D44658494C392A
:1028B00039E059453AD9914205D0994203D0A14215
:1028C00001D0A94202D14FF0200C2AE0B14228D019
:1028D000B94226D0DFF84081A8F13008414520D028
:1028E000DFF82C8108F1300841451AD0DFF828C103
:1028F000ACF1780C614511D0DFF814C1ACF1180CC3
:1029000061450BD0DFF810C1ACF1180C614505D062
:10291000DFF8FCC00CF1480C614501D1CC4600E069
:10292000D4463B495039C1F800C07BE071453AD9E3
:10293000914205D0994203D0A14201D0A94202D1CF
:102940004FF0200C2AE0B14228D0B94226D0DFF85F
:10295000C880A8F13008414520D0DFF8B48008F1E4
:10296000300841451AD0DFF8B0C0ACF1780C6145B1
:1029700011D0DFF89CC0ACF1180C61450BD0DFF82A
:1029800098C0ACF1180C614505D0DFF884C00CF19B
:10299000480C614501D1CC4600E0D4461E49B83907
:1029A000C1F80CC03EE0914205D0994203D0A1424B
:1029B00001D0A94202D14FF0200C30E0B1422ED01C
:1029C000B9422CD0DFF85080A8F13008414526D01C
:1029D000DFF83C8008F13008414520D0DFF838C0EE
:1029E000ACF1780C614511D0DFF824C0ACF1180CC3
:1029F00061450BD0DFF820C0ACF1180C614505D063
:102A0000DFF80CC00CF1480C614507D1CC4606E05C
:102A10005864024004008000B8600240D446FE4979
:102A2000C1F808C0DFF8F48301684FF4007C4FF46C
:102A300000294FF0007A414538D9914205D099429A
:102A400003D0A14201D0A94202D14FF0080C2AE0E4
:102A5000B14228D0B94226D0DFF8BC8308F18808FB
:102A6000414520D0DFF8B48308F1300841451AD041
:102A7000DFF8A4C30CF1400C614511D0DFF89CC312
:102A8000ACF1180C61450BD0DFF88CC30CF1A00C35
:102A9000614505D0DFF884C30CF1480C614501D1D4
:102AA000CC4600E0D446DD494C3939E059453AD9A5
:102AB000914205D0994203D0A14201D0A94202D14E
:102AC0004FF0080C2AE0B14228D0B94226D0DFF8F6
:102AD000488308F18808414520D0DFF8408308F199
:102AE000300841451AD0DFF830C30CF1400C614585
:102AF00011D0DFF828C3ACF1180C61450BD0DFF81A
:102B000018C30CF1A00C614505D0DFF810C30CF11F
:102B1000480C614501D1CC4600E0D446BF4950394C
:102B2000C1F800C074E0714539D9914205D099428D
:102B300003D0A14201D0A94202D14FF0080C2AE0F3
:102B4000B14228D0B94226D0DFF8CC8208F18808FB
:102B5000414520D0DFF8C48208F1300841451AD041
:102B6000DFF8B4C20CF1400C614511D0DFF8ACC203
:102B7000ACF1180C61450BD0DFF89CC20CF1A00C35
:102B8000614505D0DFF894C20CF1480C614501D1D4
:102B9000CC4600E0D446A049C1F80CC038E09142D0
:102BA00005D0994203D0A14201D0A94202D14FF0F1
:102BB000080C2AE0B14228D0B94226D0DFF858826A
:102BC00008F18808414520D0DFF8508208F130082C
:102BD00041451AD0DFF840C20CF1400C614511D0DC
:102BE000DFF838C2ACF1180C61450BD0DFF828C211
:102BF0000CF1A00C614505D0DFF820C20CF1480CA7
:102C0000614501D1CC4600E0D4468349C1F808C0F3
:102C1000DFF808820168DFF808C24FF480394FF40A
:102C2000800A414538D9914233D0994231D0A142EE
:102C30002FD0A9422DD0B1420DD0B9420BD0DFF830
:102C4000D8C10CF1880C614505D0DFF8D0C10CF17A
:102C5000300C614502D14FF0400C1AE0DFF8B8C1EA
:102C60000CF1400C614511D0DFF8B0C1ACF1180C8B
:102C700061450BD0DFF8A0C10CF1A00C614505D077
:102C8000DFF898C10CF1480C614501D1CC4600E059
:102C9000D44662494C3939E059453AD9914233D04A
:102CA000994231D0A1422FD0A9422DD0B1420DD0AE
:102CB000B9420BD0DFF860C10CF1880C614505D03A
:102CC000DFF858C10CF1300C614502D14FF0400CD7
:102CD0001AE0DFF844C10CF1400C614511D0DFF877
:102CE0003CC1ACF1180C61450BD0DFF82CC10CF1E4
:102CF000A00C614505D0DFF824C10CF1480C6145FA
:102D000001D1CC4600E0D44644495039C1F800C056
:102D100074E0714539D9914233D0994231D0A14202
:102D20002FD0A9422DD0B1420DD0B9420BD0DFF83F
:102D3000E8C00CF1880C614505D0DFF8E0C00CF16B
:102D4000300C614502D14FF0400C1AE0DFF8C8C0EA
:102D50000CF1400C614511D0DFF8C0C0ACF1180C8B
:102D600061450BD0DFF8B0C00CF1A00C614505D077
:102D7000DFF8A8C00CF1480C614501D1CC4600E059
:102D8000D4462549C1F80CC038E0914233D099426D
:102D900031D0A1422FD0A9422DD0B1420DD0B9429D
:102DA0000BD0DFF874C00CF1880C614505D0DFF85A
:102DB0006CC00CF1300C614502D14FF0400C1AE0B0
:102DC000DFF854C00CF1400C614511D0DFF84CC065
:102DD000ACF1180C61450BD0DFF83CC00CF1A00C35
:102DE000614505D0DFF834C00CF1480C614501D1D4
:102DF000CC4600E0D4460849C1F808C0DFF81C8082
:102E000001684FF4806C4FF480194FF0806A41459F
:102E100031D991420CD005E0006002405864024074
:102E200001008000994203D0A14201D0A94202D101
:102E30004FF0100C1CE0B1421AD0B94218D0574ADA
:102E4000914215D0564A914212D0544A483A914282
:102E50000BD0534A483A914207D0504A1832914217
:102E600003D04F4A1832914201D1CC4600E0D446FB
:102E70004B497C392BE059452CD9914205D09942D8
:102E800003D0A14201D0A94202D14FF0100C1CE0A6
:102E9000B1421AD0B94218D0404A914215D0404AA6
:102EA000914212D03D4A483A91420BD03C4A483AAE
:102EB000914207D0394A1832914203D0384A183229
:102EC000914201D1CC4600E0D44635498039C1F861
:102ED00000C05AE071452CD9914205D0994203D0E7
:102EE000A14201D0A94202D14FF0100C1CE0B14226
:102EF0001AD0B94218D0294A914215D0284A914295
:102F000012D0264A483A91420BD0254A483A91427B
:102F100007D0224A1832914203D0214A18329142F6
:102F200001D1CC4600E0D4461C498839C1F80CC018
:102F30002BE0914205D0994203D0A14201D0A94291
:102F400002D14FF0100C1CE0B1421AD0B94218D097
:102F5000124A914215D0124A914212D00F4A483A71
:102F600091420BD00E4A483A914207D00B4A183290
:102F7000914203D00A4A1832914201D1CC4600E076
:102F8000D44606498839C1F808C00021C16480F8D8
:102F9000351080F834100846BDE8F08F8860024094
:102FA000886402402DE9F05FFB490746FA4DFB4E6D
:102FB00000684A15DFF8E093DFF8E0A3DFF8D8B344
:102FC0009302F64C483D60364FF0007C09F1180939
:102FD0000AF1180AABF1300B88422BD9EE4954396B
:102FE0002EE048453BD100BF4FF008080AE0DFF86B
:102FF000A88308F1300840453CD1904602E098464D
:1030000000E0E04611EA080F6FD0016849076CD56F
:10301000016821F004010160DF493868884265D900
:10302000A04205D0A84203D0B04201D048453AD1D1
:10303000082257E0D949A831884203D9D6495839DE
:10304000096805E0D54948318842D549F8D9496829
:10305000A042C9D0A842C7D0B042C5D0C1E75045B0
:10306000CBD05845C9D0DFF8348308F17808404503
:10307000C3D0BCE7DFF8248308F130084045BED058
:10308000DFF81483A8F118084045B8D0DFF80C83A6
:1030900008F190084045B2D0DFF8FC8208F14808FA
:1030A0004045AED1ABE750451CD058451AD0BB497E
:1030B0007831884216D0B8493031884212D0B749A9
:1030C000303188420BD0B4491839884207D0B3490F
:1030D0009031884203D0B0494831884201D11A4624
:1030E00000E06246AC484C382FE099E0AB49A8318B
:1030F00088422CD9A04205D0A84203D0B04201D0CA
:10310000484501D108221EE050451CD058451AD030
:10311000A2497831884216D09F493031884212D076
:103120009E49303188420BD09B491839884207D0DC
:103130009A499031884203D097494831884201D159
:103140001A4600E062469448503802605AE09349BB
:10315000483188422BD9A04205D0A84203D0B042C2
:1031600001D0484501D108221EE050451CD05845E9
:103170001AD08A497831884216D08749303188423E
:1031800012D08649303188420BD0834918398842A1
:1031900007D082499031884203D07F494831884224
:1031A00001D11A4600E062467D48C2602AE0A04292
:1031B00005D0A84203D0B04201D0484501D1082231
:1031C0001EE050451CD058451AD0744978318842C9
:1031D00016D071493031884212D07049303188425E
:1031E0000BD06D491839884207D06C49903188421C
:1031F00003D069494831884201D11A4600E062464D
:1032000067488260F86C40F00100F864042087F899
:103210003500002087F83400B96C09B1384688477A
:10322000604A5D493868D3114FF4800C884237D921
:10323000594954393AE0484547D190460CE0DFF807
:10324000588108F1300840454AD100BF4FF040088E
:1032500002E0984600E0E04611EA080F6FD04169AD
:1032600009066CD5416921F0800141614A493868FD
:10327000884265D9A0425FD0A8425DD0B0425BD001
:10328000484559D0504509D0584507D04349783171
:10329000884203D04049303188423AD140224BE045
:1032A0003E49A831884203D93B495839096805E0AD
:1032B0003A49483188423A49F8D94968A042BCD0D5
:1032C000A842BAD0B042B8D0B5E75045BED05845B4
:1032D000BCD0DFF8C88008F178084045B6D0AEE72A
:1032E000DFF8B88008F130084045B2D0DFF8A88098
:1032F000A8F118084045ACD0DFF8A08008F190088C
:103300004045A6D0DFF8908008F148084045A2D19A
:103310009FE72249303188420BD01F491839884233
:1033200007D01E499031884203D01B49483188425A
:1033300001D11A4600E0624617484C3836E0A1E059
:103340001649A831884233D9A0422ED0A8422CD0A9
:10335000B0422AD0484528D0504509D0584507D01A
:103360000E497831884203D00B493031884201D16F
:1033700040221AE00949303188420BD006491839F9
:10338000884207D005499031884203D0024948312C
:10339000884209D11A4608E0586402401060024091
:1033A00000600240010080006246F94802605BE074
:1033B000F84988422CD9A04226D0A84224D0B04255
:1033C00022D0484520D0504509D0584507D0F14972
:1033D0003031884203D0EE498031884201D1402209
:1033E00012E0EC49183988420BD0E949383188425B
:1033F00007D0E8494831884203D0E54998318842EE
:1034000001D11A4600E06246E2485838C2602BE01B
:10341000A04226D0A84224D0B04222D0484520D095
:10342000504509D0584507D0DA493031884203D099
:10343000D7498031884201D1402212E0D54918395C
:1034400088420BD0D2493831884207D0D14948311F
:10345000884203D0CE499831884201D11A4600E013
:103460006246CC4858388260F86C40F00200F8643C
:10347000042087F83500002087F83400B96C09B1C2
:1034800038468847C249C44A3868503153114FF40E
:10349000807C4FF0807E884236D9BD49091F39E0D3
:1034A000484545D190460AE0DFF8E48208F18008FB
:1034B000404548D1E04602E0984600E0F04611EA77
:1034C000080F6FD0016889076CD5016821F00201EF
:1034D0000160AF4938685031884264D9A0425ED05B
:1034E000A8425CD0B0425AD0484558D0504509D087
:1034F000584507D0A7493031884203D0A4498031CC
:10350000884239D162464AE0A2496031884203D9F3
:103510009F490839096804E09E4988429F49F9D9C2
:103520004968A042BED0A842BCD0B042BAD0B7E7EA
:103530005045BFD05845BDD0DFF8588208F130085B
:103540004045B7D0B0E7DFF84C82A8F118084045F5
:10355000B2D0DFF83C8208F138084045ACD0DFF843
:10356000348208F148084045A6D0DFF8248208F1EB
:1035700098084045A2D19FE78649183988420BD068
:1035800083493831884207D082494831884203D084
:103590007F499831884201D11A4600E072467C4842
:1035A000001D2EE097E07B49603188422BD9A04274
:1035B00026D0A84224D0B04222D0484520D0504541
:1035C00009D0584507D073493031884203D070493B
:1035D0008031884201D1624612E06E491839884232
:1035E0000BD06B493831884207D06A49483188424C
:1035F00003D067499831884201D11A4600E07246EB
:103600006348026059E0634988422BD9A04226D022
:10361000A84224D0B04222D0484520D0504509D0FD
:10362000584507D05B493031884203D05849803132
:10363000884201D1624612E05649183988420BD0BF
:1036400053493831884207D052494831884203D023
:103650004F499831884201D11A4600E072464F48DE
:10366000C2602AE0A04226D0A84224D0B04222D094
:10367000484520D0504509D0584507D045493031FC
:10368000884203D042498031884201D1624612E02B
:103690004049183988420BD03D493831884207D01B
:1036A0003C494831884203D039499831884201D198
:1036B0001A4600E0724639488260F86C40F0040017
:1036C000F864042087F83500002087F83400B96CCE
:1036D00009B138468847DFF8B8C04FF480613868D0
:1036E0000CF1500C8A020B04604534D9DFF8A0C0FD
:1036F000ACF1040C39E0484552D100BF4FF010083E
:103700000AE0DFF88C8008F18008404551D18846F6
:1037100002E0904600E098461CEA080F7ED0D0F800
:1037200000C05FEA0C7C79D5D0F800C05FEA4C3865
:103730004FF0310C73D5DFF8588008F15008404540
:1037400075D9A04205D0A84203D0B04201D0484567
:1037500046D1102168E0DFF83CC00CF1600C6045F8
:1037600006D9DFF82CC0ACF1080CDCF800C007E08B
:10377000DFF820C06045DFF824C0F6D9DCF804C0CB
:10378000A042BBD0A842B9D0B042B7D0B3E7000046
:10379000086402405860024004008000006002405B
:1037A0005045B4D05845B2D0DFF84C844045AED037
:1037B000A7E7DFF84484A8F148084045A9D0DFF81E
:1037C0003C844045A5D0DFF8308408F11808404516
:1037D0009FD0DFF8288408F1600840459BD198E726
:1037E000504521D058451FD0DFF80C8440451BD0F0
:1037F000DFF8088408F14808404515D0FE494839EB
:1038000088420AD0FD49884207D0FB4918318842D6
:1038100003D0FA496031884205D102E0ADE0BBE057
:1038200005E0114600E01946F448343831E0DFF88D
:10383000C88308F1300840452DD9A04205D0A842E0
:1038400003D0B04201D0484501D110211FE05045BE
:103850001DD058451BD0DFF8A083404517D0DFF8B6
:103860009C8308F14808404511D0E3494839884213
:103870000AD0E249884207D0DF491831884203D094
:10388000DE496031884201D1114600E01946DB482B
:103890003838016060E0DFF86083A8F13008404507
:1038A0002DD9A04205D0A84203D0B04201D048454E
:1038B00001D110211FE050451DD058451BD0DFF825
:1038C0003883404517D0DFF8348308F14808404575
:1038D00011D0C949483988420AD0C849884207D01E
:1038E000C5491831884203D0C4496031884201D1AA
:1038F000114600E01946C0488838C1602CE0A0425B
:1039000005D0A84203D0B04201D0484501D11021D2
:103910001FE050451DD058451BD0DFF8DC824045E4
:1039200017D0DFF8D88208F14808404511D0B249D5
:10393000483988420AD0B149884207D0AE49183187
:10394000884203D0AD496031884201D1114600E080
:103950001946A9488838816038680168090302D48B
:1039600087F835C005E00068000302D5412087F8DC
:103970003500396C09B138468847DFF880C24FF40A
:10398000006138680CF1180C8A024FF0006E604537
:1039900070D99A4B3C3B00E1D0F800805FEAC858F0
:1039A00005D4D0F8008028F00808C0F80080DFF8BF
:1039B0004C82386808F1180840452CD9A04205D03F
:1039C000A84203D0B04201D0484501D110211FE0E8
:1039D00050451DD058451BD0DFF81C82404517D0FC
:1039E000DFF8188208F14808404511D0824948396B
:1039F00088420AD08149884207D07F4918318842DD
:103A000003D07E496031884201D1114600E0194659
:103A10007A48343832E0DFF8E08108F13008404578
:103A20002ED9A04205D0A84203D0B04201D04845CB
:103A300001D1102120E050451ED058451CD0DFF8A0
:103A4000B881404518D0DFF8B48108F148084045F6
:103A500012D06949483988420AD06849884207D05B
:103A600065491831884203D064496031884202D1E7
:103A7000114601E08BE019466048383801606FE775
:103A8000DFF87481A8F1300840452DD9A04205D057
:103A9000A84203D0B04201D0484501D110211FE017
:103AA00050451DD058451BD0DFF84C81404517D0FC
:103AB000DFF8488108F14808404511D04E4948399F
:103AC00088420AD04D49884207D04B491831884274
:103AD00003D04A496031884201D1114600E01946BD
:103AE00045488838C1603BE7A04205D0A84203D0D2
:103AF000B04201D0484501D110211FE050451DD0F2
:103B000058451BD0DFF8F080404517D0DFF8EC8037
:103B100008F14808404511D03749483988420AD051
:103B20003649884207D034491831884203D0334996
:103B30006031884201D1114600E019462E4888388C
:103B400081600DE7484537D14FF020080AE0DFF8E3
:103B5000AC8008F14808404537D1884602E09046DD
:103B600000E0F04613EA080F7AD00368DB0677D549
:103B700003685B0375D5604564D9A04205D0A842AF
:103B800003D0B04201D048453CD1202157E01A4B28
:103B90003033984203D9194B403B1B6805E0164B64
:103BA000303B9842164BF8D95B68A042CCD0A84273
:103BB000CAD0B042C8D0C5E75045CED05845CCD0C9
:103BC000DFF834804045C8D0C1E7DFF8348008F121
:103BD00040084045C3D0DFF824804045BFD0DFF81F
:103BE000188008F118084045B9D0DFF8108008F1B6
:103BF00060084045B5D1B2E78860024040640240A9
:103C00000060024050451AD0584518D0BE4B98422B
:103C100015D0BE4B984212D0BB49483988420BD0D0
:103C2000BA494839884207D0B7491831884203D089
:103C3000B6491831884201D1114600E07146B348B7
:103C40007C382EE0B04B303398422CD9A04205D0BE
:103C5000A84203D0B04201D0484503D120211EE044
:103C6000FBE089E050451AD0584518D0A64B984241
:103C700015D0A64B984212D0A349483988420BD0A0
:103C8000A2494839884207D09F491831884203D059
:103C90009E491831884201D1114600E071469B4887
:103CA0008038016058E0984B303B98422AD9A042B6
:103CB00005D0A84203D0B04201D0484501D120210F
:103CC0001CE050451AD0584518D08F4B984215D05B
:103CD0008E4B984212D08C49483988420BD08B4980
:103CE0004839884207D088491831884203D087492B
:103CF0001831884201D1114600E071468248883867
:103D0000C16029E0A04205D0A84203D0B04201D052
:103D1000484501D120211CE050451AD0584518D003
:103D2000794B984215D0794B984212D07649483950
:103D300088420BD075494839884207D072491831FA
:103D4000884203D071491831884201D1114600E000
:103D500071466D488838816038680168090301D46C
:103D6000796C03E00068000377D5F96B002974D003
:103D70003846BDE8F05F08470368DB0503D40368F5
:103D800023F0100303603868604529D9A04205D0AC
:103D9000A84203D0B04201D0484501D120211CE007
:103DA00050451AD0584518D0574B984215D0574B0C
:103DB000984212D05449483988420BD05349483967
:103DC000884207D050491831884203D04F491831F2
:103DD000884201D1114600E071464C487C382CE005
:103DE000494B303398422AD9A04205D0A84203D08B
:103DF000B04201D0484501D120211CE050451AD0E5
:103E0000584518D0404B984215D0404B984212D09C
:103E10003D49483988420BD03C494839884207D04F
:103E200039491831884203D038491831884201D1C4
:103E3000114600E0714635488038016059E0324B48
:103E4000303B98422BD9A04205D0A84203D0B042C3
:103E500001D0484502D120211DE053E050451AD041
:103E6000584518D0284B984215D0284B984212D06C
:103E70002549483988420BD024494839884207D01F
:103E800021491831884203D020491831884201D194
:103E9000114600E071461C488838C16029E0A04204
:103EA00005D0A84203D0B04201D0484501D120211D
:103EB0001CE050451AD0584518D0134B984215D0E5
:103EC000124B984212D01049483988420BD00F4902
:103ED0004839884207D00C491831884203D00B4931
:103EE0001831884201D1114600E0714606488838F1
:103EF0008160F86CF864112087F83500002087F89D
:103F0000340032E7BDE8F09F8860024088640240D8
:103F100070B5D0B10221446A80F8351003681A6880
:103F200016490A40D0E901152943D0E90356354323
:103F300029434569294385692943C5692943056A98
:103F400029431143042C02D005E0012070BDD0E9C3
:103F50000B2422431143196003685969426A21F016
:103F600007011143042A01D1826A114359610021DA
:103F7000C164012180F83510002070BD3F8014F02D
:103F800070B5044690F8340001282DD0012084F843
:103F90003400022084F835002068056825F001050A
:103FA00005602046FEF794FA2068016841F0100190
:103FB00001602068016841F0080101602068016823
:103FC00041F0040101602068416941F080014161D4
:103FD0002068016841F0020101602068016841F039
:103FE00001010160002070BD022070BD31B500F0FC
:103FF00027F9044600F024F90099001B8842F9D300
:1040000038BD000070B500250126104C012807D0EE
:10401000022804D1A068012814D0E560A66070BD14
:10402000A06908B1A56170BD0A20FFF7DFFF6069D4
:10403000012801D0606918B125616561A66170BD74
:104040006661FBE7E660A56070BD0000000000202F
:10405000044910B50A68024202D00860FFF7D2FF97
:1040600010BD0000143C01402DE9F04FDFF888B18D
:1040700000224FF001084FF0030A4FF00F090BF137
:10408000040E00BF0B6808FA02F42340A3426FD16C
:104090004D68022D01D0122D0ED1D50800EB850CF4
:1040A000DCF820505607F70E09FA07F6B5430E69FB
:1040B000BE402E43CCF82060066855000F790AFAFE
:1040C00005FC07F0030726EA0C06AF4037430760FC
:1040D0004E68012E05D0022E03D0112E01D0122ED3
:1040E0000ED18768CE6827EA0C07AE403E43866053
:1040F0004668A6430C79C4F30014944034434460EA
:10410000C4688E6824EA0C04AE402643C6604C683E
:10411000E4006BD5394C256845F480452560384C62
:1041200022F003052F19D7F808589407240F09FA2D
:1041300004F6B543334EB04201D100262EE0324E94
:10414000B04201D1012629E0304EB04201D1022611
:1041500024E02F4EB04201D103261FE02D4EB04285
:1041600001D104261AE02C4EB04202D1052615E0FA
:104170003CE02A4EB04201D106260FE0284EB04264
:1041800001D107260AE0274EB04201D1082605E0FA
:10419000254EB04201D1092600E00A26A6402E4352
:1041A000C7F80868DBF800405D464E689C43F6039C
:1041B00000D51C432C60DEF8004075464E689C43D9
:1041C000B60300D51C432C600B4D08352C684E6897
:1041D0009C43F60200D51C432C60074D0C352C681F
:1041E0004E689C43B60200D51C432C60521C102A1A
:1041F000FFF448AFBDE8F08F003C01404438024076
:10420000003001400000024000040240000802406B
:10421000000C02400010024000140240001802404E
:10422000001C0240002002400024024042694A4033
:10423000426170470AB101837047418370470000B3
:10424000014800687047000018010020D0F88C0277
:1042500003F063BCD0F88C0203F075BC006804F076
:104260003DBE006804F03EBE01EB810100EBC100E1
:1042700090F85400704701EB810100EBC100406CE5
:10428000704710B5044690F88802012809D0012033
:1042900084F88802206804F030FE002084F8880248
:1042A00010BD022010BDFEB50546DDE9096095F898
:1042B0008842089F012C1ED0012485F8884201EB1A
:1042C000810405EBC40402F07F0C04F8303F208128
:1042D0006170E67184F802C04FEAD21C84F803C012
:1042E00027710097CDE90160286804F0C3FE002122
:1042F00085F88812FEBD0220FEBD70472DE9F0034F
:1043000001EB8104DDE90689DDE908C700EBC4049F
:10431000022684F8332084F83730B8F1000F0AD031
:1043200084F83A60002553B1012B3FD0022B1DD0F9
:10433000032B2AD120E0032584F83A50F2E7B8F1A4
:10434000010F22D10ABBBCF1000F10D1012284F869
:10435000492002E084F83A5001E084F83A6094F889
:104360005420022A11D084F835700EE02AB994F84E
:104370004920002AF1D1EDE712B194F8482001E07C
:1043800094F8492092B184F83A60C4E90F9C84F80B
:104390005450656484F8311084F85550027C04F15F
:1043A00030010068BDE8F00304F0E0BE84F83A5044
:1043B000EBE700002DE9F0410446006800250646C1
:1043C00004F097FD01287DD1206805F01CF8002835
:1043D00078D0206805F017F8800203D521684FF4E3
:1043E00000104861206805F00EF8C00203D521686E
:1043F0004FF480104861206805F005F8400103D5AE
:1044000021684FF080604861206804F0FCFF80075D
:1044100002D5216802204861206804F0F4FF800082
:1044200010D5D6F8400420F02E00C6F840042046EF
:10443000FFF710FF0121206804F0CAFF21684FF048
:1044400000504861206804F0DEFFC00102D520461C
:1044500001F0A0FF206804F0D6FF000705D5204634
:1044600000F0C1F8216808204861206804F0CBFF03
:10447000800120D5206804F072FE07464FF0010845
:1044800012E000BF08FA05F038420CD006EB4510E8
:10449000D0F80005E9B20004204602D501F03FFD46
:1044A00001E001F05DFE6D1CA068A842EAD8216819
:1044B0004FF000704861206804F0A5FFC0060ED5DB
:1044C000206800E00BE0816921F010018161204645
:1044D00001F0B8FF2068816941F010018161BDE8F9
:1044E000F08130B589B0040026D0032084F8890219
:1044F000204600F023F8206804F082FC04F110014B
:1045000020220D466846FDF7A5F994E80F0004F057
:1045100025FC0121206804F0A0FF202229466846DE
:10452000FDF798F994E80F0004F0E8FE012084F804
:104530008902002009B030BD0120FBE72DE9F043DE
:10454000006885B0B0F1A04F40D12248016841F029
:1045500001010160016841F0040101604FF4C050A5
:1045600002264FF000088DE8410103250A27DFF8F5
:104570006890CDE9035769464846FFF775FD70021C
:10458000009001AA1220012482E8B1006946484641
:10459000FFF76AFD03960094CDE9014869460F488C
:1045A000FFF762FD0B48001D016841F080010160CA
:1045B00008481430016841F480410160002206215E
:1045C000432000F055FD432000F046FD05B0BDE856
:1045D000F083000030380240000002400008024032
:1045E000006804F024BFD0F88C0203F003BB10B5C0
:1045F000044690F8880201280DD0012084F8880232
:10460000206804F043FC0121206804F029FC00200C
:1046100084F8880210BD022010BD10B5044690F841
:104620008802012809D0012084F88802206804F05B
:104630002AFF002084F8880210BD022010BD10B5AA
:10464000040012D0022084F835002068016821F0AF
:1046500001010160204600F0D5F9002084F8360001
:1046600084F8350084F8340010BD012010BD90F8A6
:104670003500704710B5040003D094F8350010B130
:1046800004E0012010BD204600F0BDF9022084F8AE
:1046900035002068016821F00101016000F0DCFEB6
:1046A00032492268B0FBF1F15160314A63689342AC
:1046B00006D94FF4967359434FF47A73B1FBF3F173
:1046C0002368491C1962616891420BD84900B0FB0C
:1046D000F1F2C2F30B02042A01D204201AE0B0FB6B
:1046E000F1F017E0A3689BB301EBC10202EB0112EA
:1046F000B0FBF2F242F48042120530D04BB301EB32
:10470000C10202EB0111B0FBF1F040F4804000BFA8
:1047100040F400402168C861D4E9070108432168DA
:104720000860D4E90310084321688860D4E90501D2
:1047300008432168C8602068016841F001010160F8
:10474000002084F83600012084F83500002010BDD8
:1047500000E006E001EB4102B0FBF2F2CCE7012001
:10476000D8E701EB4101B0FBF1F0D1E740420F0087
:10477000A08601002DE9F84F04460AA890E86008D9
:1047800094F83500012878D1FDB1F6B12068806930
:10479000C043800771D594F8340001286DD04FF0E4
:1047A000010884F83480422084F83500002784F81A
:1047B00036702046CDF800B001F082FE40B194F88A
:1047C000360084F83470042879D10120BDE8F88FD0
:1047D000DFF850A1012E17D0DFF848912068A9F129
:1047E0003C09022E25D041698069032E69D8012E2B
:1047F00016D0022E29D05B4600224946204601F001
:1048000017FF00285BD139E02068016821F480613E
:104810000160206841698169016841F400710160AB
:104820005B4600225146204601F002FF00286ED16F
:1048300013E0016821F4806101602068016841F49F
:10484000006101602068416980695B460022494639
:10485000204601F0EDFE90BB03E02068006928705F
:1048600049E02068016841F4007101602068006936
:1048700028702068006968703DE050E02068016899
:1048800021F4806101602068006905F8010B761E43
:10489000B6B25B4600224946204601F0C9FE70B917
:1048A0002068016841F4007101602068006905F822
:1048B000010B2068006905F8010BB61E17E026E021
:1048C000FFE75B4600225146204601F0B1FEF0B9F9
:1048D0002068006905F8010B2068761EB6B24169B0
:1048E000C943490704D4006905F8010B761EB6B226
:1048F000002E7FF47AAF2068016821F40061016026
:104900005B4601220849204601F092FE08B10320CF
:104910005CE784F8358084F83470002056E7022084
:1049200054E7000040000100020010002DE9F84F9C
:104930000446DDE90A6590F83500DDF8309001287D
:104940005AD1FEB1F5B120688069C043800753D5C4
:1049500094F8340001284FD04FF0010884F83480D7
:10496000322084F83500002784F836702046CDF8D0
:10497000009001F015FE40B194F8360084F83470D0
:10498000042831D10120BDE8F88FDFF870A04B4634
:1049900000225146204601F04BFE28BB216816F844
:1049A000010B086120686D1EADB24169C94349071A
:1049B00005D435B116F8011B01616D1EADB2002D95
:1049C000E5D14B4600225146204601F031FE58B950
:1049D0002068016841F4007101604B4601220849DA
:1049E000204601F025FE08B10320CCE784F835808D
:1049F00084F834700020C6E70220C4E7800001007C
:104A0000020010007047704730B590F83C10012943
:104A10000FD0012180F83C1090F83D1012290AD0E7
:104A200090F83D1022290BD090F83D1032290DD07E
:104A30002FE0022030BD01684A6822F0020203E044
:104A400001684A6822F001024A6022E01749184AC8
:104A500044684FF0402364B1B4F5007F09D0046886
:104A6000656825F00105656004688C4217D1114620
:104A700016E00468656825F00205656004688C42EC
:104A800001D1114600E01946496821F001010BD11E
:104A900051604FF0000180F83C10084630BD1946C7
:104AA000496821F00201F3D01A46F1E700380040CE
:104AB0000034004030B590F83C1001290FD001219E
:104AC00080F83C1090F83D1012290AD090F83D1063
:104AD00022290BD090F83D1032290DD02FE0022072
:104AE00030BD01684A6842F0020203E001684A688A
:104AF00042F001024A6022E01B491C4A44684FF020
:104B0000402364B1B4F5007F09D00468656845F0BE
:104B10000105656004688C421ED111461DE00468E1
:104B2000656845F00205656004688C4201D1114654
:104B300000E01946496841F0010112D15160016855
:104B4000CA69520503D4CA6942F48062CA6100216D
:104B500080F83C10084630BD1946496841F0020112
:104B6000ECD01A46EAE7000000380040003400406C
:104B70002DE9F041044690F83C00012815D04FF093
:104B8000010884F83C802068416821F002014160FE
:104B90002068416821F001014160206A244D254EC2
:104BA0004FF04027012803D01EE00220BDE8F0812D
:104BB0002068A84201D1304600E03846406820F025
:104BC000020001D1314600E0394648602068A84221
:104BD00001D1304600E03846406820F0010101D1A3
:104BE000304600E038464160606B08B1FDF7CAFC12
:104BF000A06B08B1FDF7C6FC2068C16921F4806193
:104C0000C161206A01280BD12068A84201D1304639
:104C100000E03846C06920F4806000D03E46F06174
:104C200084F83D804FF0000084F83C00BEE70000AF
:104C3000003800400034004010B5044600680649C2
:104C4000884201D1FDF7FCFA04492068884201D16D
:104C5000FDF73AFA10BD0000003C0040003800406B
:104C600090F83D00704700002DE9F0474FF0000735
:104C700004004FF002064FF001083D4603D094F8BF
:104C80003D0018B105E00120BDE8F087204600F0A6
:104C9000D3F8022184F83D102068C26940F6BF7342
:104CA0009A43C261206801622068D0F81CC0606924
:104CB00001224FF40079022853D0E06800B1884601
:104CC000E5695748012D07D0554D083D2D686D0108
:104CD0000BD484F83D20D6E705682D0203D405687F
:104CE00045F4000505604F481EE005682D0203D518
:104CF000056825F4000505604948001F056800683F
:104D00006D0200F03F0001D5474D00E0474DB5FB77
:104D1000F0F543487C3006680068C6F388166E4399
:104D2000C0F30270B6FBF0F025694D4501D1000AD1
:104D300003E04FEA4815B0FBF5F000EB8000656931
:104D40004000B0FBF5F0401D0A25B0FBF5F505F07D
:104D500001002E1A76080702B01EFE2801D3022693
:104D6000002720693E43304326683062D4E90106BB
:104D70003043A769E6683E433043266840EA0C00AA
:104D800040F40060F061206A012841D12848D4F83D
:104D900000C0284E4FF04027844501D1B44600E0C2
:104DA000BC46DCF81CC02CEA030C01D1334600E001
:104DB0003B46C3F81CC02368834201D1334600E060
:104DC0003B4619622368834201D1314600E03946EF
:104DD000D1F81CC061684FF4807849451ED0E9B114
:104DE000B1F5407F01D0414500D10025D4E902183A
:104DF00041EA0801D4F81880834248EA050841EAEC
:104E0000080141EA0C0141F4006100D03E46F16125
:104E1000002084F83E0084F83D2035E74546E5E76C
:104E2000083802400080BB0000127A000024F40021
:104E300000380040003400407047000070B5044660
:104E400029B122B194F83D00012802D052E001209E
:104E500070BDE1622368D869DB6900F0070003F0E8
:104E60000703032821D0052B1FD02286A4F8322067
:104E700094F83C0001283DD0012084F83C00222019
:104E800084F83D00002584F83E50A26B1A48106457
:104E9000A26B1A48D063A26B194890642068C2695B
:104EA000C2F30122032A07D008E04FF6FF7000EAA0
:104EB000420020866086DBE7C2688268238E0A464D
:104EC000A66B00F10C013046FFF75AF82068C16963
:104ED000490503D4C16941F48061C161206841681A
:104EE000C90703D1416841F00101416084F83C5099
:104EF000002070BD022070BDCD6A0000656A000010
:104F0000416A000010B5FDF767F910BD10B5FDF757
:104F1000DDF810BD70B5044629B122B194F83D000A
:104F2000012802D047E0012070BD61622368D86982
:104F3000DB6900F0070003F00703032834D0052BDA
:104F400032D02285A4F82A2094F83C00012832D0DF
:104F5000012084F83C00122084F83D00002584F8EC
:104F60003E50626B15481064626B1548D063626BEB
:104F700014489064238D2268606B0C32FFF700F8B0
:104F80002068C169490503D4C16941F48061C161E8
:104F900020684168890703D4416841F002014160FB
:104FA00084F83C50002070BD4FF6FF7000EA4200CC
:104FB00020856085C8E7022070BD00003D6B0000C1
:104FC000D96A0000416A000010B5006802498842B1
:104FD00001D1FDF7D7F910BD003C004010B50068C5
:104FE0000249884201D1FDF72DF910BD003C004077
:104FF00002480168491C0160704700001801002048
:105000000B4810B5016841F400710160016841F47A
:1050100080610160016841F480710160032000F04B
:1050200047F80F2000F006F800F015F8002010BD3A
:10503000003C024010B5044600F0F4F94FF47A71D8
:10504000B0FBF1F000F0ADFD00222146501E00F053
:105050000FF8002010BD704700F01F0201219140A1
:105060004009800000F1E020C0F800117047000006
:10507000F0B40E4B1B680C46C3F30223C3F10705C3
:10508000042D00D90425191D072901D2002300E0B1
:10509000DB1E012606FA05F1491E214099409E407B
:1050A000761E16403143F0BC01F09CBF0CED00E0D1
:1050B000064900F0070208684FF6FF03184040EA6F
:1050C0000220034A10430860704700000CED00E026
:1050D0000000FA05124A03210160116847F6C07307
:1050E000194093FAA3F3B3FA83F3D94041601168EE
:1050F0004FF0E04292FAA2F201F0E041B2FA82F2FD
:10510000D140816006497C390968054A01F4F811EB
:10511000143A126802F440720A43C26070470000F9
:10512000843802402DE9F047044600784FF000092A
:10513000C0074FF0010831D0474FC7F86890FFF71C
:105140007FF80646454D04E0FFF77AF8801B642897
:1051500061D828680001F7D447F6C07191FAA1F12F
:105160006068B1FA81F188404FF0E04292FAA2F211
:10517000A168B2FA82F2914008433849843108604C
:10518000C7F86880FFF75CF8064604E0FFF758F8B8
:10519000801B64283FD828680001F7D52078800755
:1051A00050D52E484030016841F0805101602C4DAF
:1051B000286840F480702860FFF742F8064604E053
:1051C000FFF73EF8801B642825D82868C005F7D56E
:1051D000224D70352868A18900F4407001F44071B7
:1051E000884208D028681F4920F44070C1F8008028
:1051F000C1F800902860E068B0F5807F11D1FFF71A
:105200001FF8064641F2883708E000BFFFF718F89C
:10521000801BB84202D90320BDE8F08728688007C8
:10522000F4D5E1680D48C1F301220830032A0BD000
:10523000016821F4F81101602868A189C1F30B010C
:10524000084328600020E7E70268074B22F4F812C1
:1052500019400A430260EFE700004742003802406D
:1052600000700040400E4742FFFCFF0F2DE9F04761
:10527000DFF8A8A105460E46DAF80000684C00F0F9
:105280000F016748083406F0FF0941F28838B1423F
:1052900054D28AF80090DAF8001001F00F01B14200
:1052A0006FD12978890705D52168AA6821F0F00116
:1052B000114321602978C90728D06968012914D0D1
:1052C0000068022914D0800700285ADA206820F0EC
:1052D000030008432060FEF7B3FF06466868012814
:1052E0000ED00228474618D023E000688003EBE781
:1052F0008001E9E7FEF7A4FF801BB84201D964E012
:1053000047462068C0F381000128F3D16EE000BF5A
:10531000FEF796FF801BB84257D82068C0F3810083
:105320000228F5D162E000BFFEF78AFF801BB84279
:105330004BD8206810F00C0FF6D157E02978890778
:1053400005D52168AA6821F0F00111432160297870
:10535000C90741D06968012914D00068022914D016
:105360008007002840DA206820F00300084320600E
:10537000FEF766FF0746686801280ED0022818D09D
:1053800026E031E000688003EBE78001E9E700BF39
:10539000FEF756FFC11B414517D82068C0F38100B6
:1053A0000128F5D118E000BFFEF74AFFC11B4145B7
:1053B0000BD82068C0F381000228F5D10CE000BFB3
:1053C000FEF73EFFC11B414502D90320BDE8F0872F
:1053D000206810F00C0FF3D18AF80090DAF8000082
:1053E00000F00F00B04201D00120EFE7287840071D
:1053F00005D52068E96820F4E0500843206028784B
:10540000000706D52068296920F4604040EAC10001
:1054100020600F20FFF70EFE0020D7E7003C02407F
:105420000038024000B500F02DF808490968F02264
:1054300092FAA2F201F0F001B2FA82F2D140044AEB
:10544000515CC8400349086000BD000008380240B4
:10545000A6B600000401002000B5FFF7E3FF0749EE
:1054600009684FF4E05292FAA2F201F4E051B2FA64
:1054700082F2D140024A515CC84000BD0838024067
:10548000A6B6000030B51D48006810F00C011C489D
:105490001AD04410042916D0082915D11749091F1C
:1054A0000A6802F03F030A6802F480054FF48002A4
:1054B00092FAA2F2B2FA82F2D54047F6C07204D054
:1054C000B4FBF3F003E0204630BDB0FBF3F00B6813
:1054D0000968134092FAA2F2B2FA82F2D34058431A
:1054E0004FF4403292FAA2F201F44031B2FA82F261
:1054F000D140491C4900B0FBF1F030BD08380240F2
:105500000024F4002DE9F84F04460078DFF818A3D2
:10551000C64DC0074FF000064DD0DAF800105046D7
:10552000C1F38101012908D00068C0F3810002287D
:105530000AD1281D0068400206D5286880033AD5A4
:105540006068012873D136E0DFF8E09209F10209C2
:1055500089F80060FEF774FE804641F2883705E066
:10556000FEF76EFEA0EB0800B8427DD828688003E5
:10557000F6D4207989F800006068012803D0FEF78E
:105580005FFE804614E0FEF75BFE804606E000BF4B
:10559000FEF756FEA0EB0800B842E6D82868800364
:1055A000F6D508E0FEF74CFEA0EB0800B842DCD8C8
:1055B00028688003F6D420789D4F80074FF0010BB8
:1055C00045D5DAF80010504611F00C0F4FF0F809ED
:1055D00009D00068C0F3810002280BD19248001F57
:1055E0000068400206D42868800714D5E0680128C6
:1055F000A8D110E0E068D8B1C7F800B0FEF720FEEF
:10560000804605E0FEF71CFEA0EB08006428ACD83D
:1056100028688007F6D5286899FAA9F22169B2FAB4
:1056200082F220F0F8009140084328600FE0F8E093
:105630003E60FEF705FE804606E000BFFEF700FE76
:10564000A0EB080064280FD828688007F6D42078DB
:10565000000729D5DFF8D0917648616909F16C0916
:1056600099B1C0F800B000E087E0FEF7E9FD8046A0
:1056700006E000BFFEF7E4FDA0EB080064287CD83C
:10568000D9F800008007F5D50EE00660FEF7D8FDDA
:10569000804605E0FEF7D4FDA0EB080064286CD836
:1056A000D9F800008007F5D42078400756D55E4829
:1056B0003830016841F080510160DFF87C91D9F801
:1056C000001041F48071C9F80010FEF7B9FD804662
:1056D00006E000BFFEF7B4FDA0EB080064284CD83C
:1056E000D9F80000C005F5D5DFF83C8108F168085D
:1056F00088F80060FEF7A4FD41F28839009005E0CB
:10570000FEF79EFD0099411A494536D8D8F80000A9
:105710008007F5D4207A88F80000A068012803D01B
:10572000FEF78EFD009015E0FEF78AFD009005E083
:10573000FEF786FD0099411A49456AD8D8F800005D
:105740008007F5D50AE000BFFEF77AFD0099411AFF
:1057500049455ED8D8F800008007F5D4A069E0B3C9
:10576000DAF80010C1F3810102295AD002283E66FE
:1057700004D0FEF765FD04464EE04AE0FEF760FD0A
:10578000064604E0FEF75CFD801B642841D82868CB
:105790008001F7D4D4E90710084347F6C07292FAA3
:1057A000A2F2616AB2FA82F29140A26A4FF0FF332C
:1057B00003EB52024FF4403393FAA3F3B3FA83F3AB
:1057C0009A40114308434FF0706292FAA2F2E16AE4
:1057D000B2FA82F29140084300E020E040F000512C
:1057E0001148001F0160C7F860B0FEF729FD0446AC
:1057F00005E000BFFEF724FD001B642809D82868D7
:105800008001F7D50BE000BFFEF71AFD001B6428EE
:1058100002D90320BDE8F88F28688001F4D4002065
:10582000F8E70120F6E7000008380240003802409F
:1058300000004742800E47420070004010B504004F
:105840000FD02068016821F040010160204600F07F
:105850004EF8002084F8520084F8510084F850007B
:1058600010BD012010BD90F85100704710B5040024
:1058700003D094F8510010B104E0012010BD20467F
:1058800000F036F8022084F851002068016821F009
:1058900040010160D4E901010843D4E90312114336
:1058A000084361690843218B01F400710843E169F1
:1058B0000843216A0843A16A084321680860A06977
:1058C000042101EA1040616A0843216848602168A8
:1058D000E06A08612068C16921F40061C1610020AB
:1058E00084F85200012084F85100002010BD704758
:1058F00070472DE9F843044690F85100DDF8208008
:10590000012801D022287ED169B162B15BB194F83F
:105910005000012877D0012684F8506094F8510097
:10592000012803D005E00120BDE8F883322084F887
:105930005100002584F85250A263A387E3872163B6
:10594000A386E386A564E564A06A4FF40057B842D5
:1059500009D12068016821F40051016020680168C4
:1059600041F40051016020680168490603D40168D0
:1059700041F040010160E0684FF48271B0F5006FC2
:10598000606807D0002867D088426ED1E08E012879
:1059900062D06AE020B188420CD1E08E012809D1A2
:1059A000206B21680088C860206B801C2063E08E1B
:1059B000401EE086E08E80B9A06AB84244D12068DB
:1059C000016841F4805101603EE02068C068A16B2D
:1059D0000880A06B801CA0639EE043460022022149
:1059E000204601F042FB002873D1206B216800881B
:1059F000C860206B801C2063E08E401E0004000CF9
:105A0000E08609D100E0CAE0A06AB84204D120686B
:105A1000016841F480510160434600220121204683
:105A200001F023FB00286FD12068C068A16B0880BB
:105A3000A06B801CA063E08F401EE087E08E0028F2
:105A4000CBD1606800286AD143460022012120465C
:105A500001F00BFBE8BBB8E7206B411C2163216818
:105A60000078C860E08E401EE086E08E98B9A06A9B
:105A7000B84204D12068016841F480510160434676
:105A800000220121204601F0F0FA10BB2068C06816
:105A9000A16B087040E0434600220221204601F03D
:105AA000E4FAB0B9206B411C216321680078C8601A
:105AB000E08E401E0004000CE08607D1A06AB842C8
:105AC00004D12068016841F48051016043460022FE
:105AD00000E019E00121204601F0C7FAA0B92068D2
